:0B229600EF1FAC0670011E4C70F6221A
:102206001221E4122194C2B7C2B5C2B67FE87E039A
:0B22160012229675E13F12197680FB42
:1021E4007527077528007529F87B057D017F011285
:1021F4001A537BE87A7F7D017F011214C5C2ACD2E9
:02220400AF2207
:1014C5008F248D258A268B27E52420E0030215B875
:1014D500E52570555389F0AE26AF27AB07AA06EA76
:1014E5003395E0F9F8C374FF9BFF74FF9AFEE49906
:1014F500FDE498FCE4FB7A01F9F81221208F8CAE0B
:1015050026AF27AB07AA06EA3395E0F9F8C374FFBF
:101515009BFF74FF9AFEE499FDE498FCE4FB7A01D5
:10152500F9F8122120AF038F8AE5256401705AE589
:101535008954F04401F589AE26AF27AB07AA06EA20
:101545003395E0F9F8C374FF9BFF74FF9AFEE499A5
:10155500FDE498FCE4FB7A01F9F81221208F8CAEAA
:1015650026AF27AB07AA06EA3395E0F9F8C374FF5F
:101575009BFF74FF9AFEE499FDE498FCE4FB7A0175
:10158500F9F8122120AF038F8AE525B4020EE5890B
:1015950054F04402F589AF278F8C8F8AE525B40373
:1015A5000EE58954F04403F589AF278F8C8F8AD2D5
:1015B5008CD2A9E52420E1030216A3E52570555335
:1015C500890FAE26AF27AB07AA06EA3395E0F9F8EF
:1015D500C374FF9BFF74FF9AFEE499FDE498FCE455
:1015E500FB7A01F9F81221208F8DAE26AF27AB07C4
:1015F500AA06EA3395E0F9F8C374FF9BFF74FF9AD6
:10160500FEE499FDE498FCE4FB7A01F9F812212047
:10161500AF038F8BE5256401705AE589540F44109B
:10162500F589AE26AF27AB07AA06EA3395E0F9F8A8
:10163500C374FF9BFF74FF9AFEE499FDE498FCE4F4
:10164500FB7A01F9F81221208F8DAE26AF27AB0763
:10165500AA06EA3395E0F9F8C374FF9BFF74FF9A75
:10166500FEE499FDE498FCE4FB7A01F9F8122120E7
:10167500AF038F8BE525B4020EE589540F4420F5A1
:1016850089AF278F8D8F8BE525B4030EE589540F20
:0F1695004430F589AF278F8D8F8BD28ED2AB2249
:101A5300EF30E070ED14601014601314601624036B
:101A63007016C29FC29E8010C29FD29E800AD29FD0
:101A7300C29E8004D29FD29EEB6404701DE527B4FE
:101A830006054387808008E527B4070653877F85CB
:101A9300299C538EE0438E118028EB6405702353F9
:101AA300890F438920538EFEE527B40605438780BB
:101AB3008008E527B4070953877FAE298E8D8E8B67
:101AC300D28ED2ACEF30E14CED14600F14601414DD
:101AD30060192403701B539A3F8016539A3F439A0D
:101AE30040800E539A3F439A808006539A3F439A0D
:101AF300C0EB6404701BE527B40608538EE3438EE2
:101B030018800BE527B40709538EE3438E1085290C
:051B13009C43AF01221C
:10189600EF30E029ED7008EBF452945293801EBDB0
:1018A6000109EB4294EBF452938012BD0206EBF46D
:1018B60052948006BD0306EB4294EB4293EF30E16F
:1018C60029ED7008EBF452925291801EBD0109EB8E
:1018D6004292EBF452918012BD0206EBF4529280D2
:1018E60006BD0306EB4292EB4291EF30E229ED7022
:1018F60008EBF452965295801EBD0109EB4296EB19
:10190600F452958012BD0206EBF452968006BD0392
:1019160006EB4296EB4295EF30E329ED7008EBF4C7
:1019260052B252B1801EBD0109EB42B2EBF452B184
:101936008012BD0206EBF452B28006BD0306EB42EE
:10194600B2EB42B1EF30E427ED7007EBF452B4523C
:10195600B322BD0108EB42B4EBF452B322BD02063A
:10196600EBF452B48006BD0306EB42B4EB42B3225D
:06000E00C107C105C10697
:03000B00021B18BD
:101B1800C0E0C0D0758C80758A17200702D20705EF
:101B280058E558D394644005755800D2023005171B
:101B38000553E553B40102D2B7E553D394144007D3
:101B4800C2B7755300C205300629055AE55A700216
:101B58000559E55A640145597004D2B5C2B6C3E5C2
:101B68005A94C8E5599400400A755900755A00C23C
:101B7800B5D2B630001A0554E554D39450401175C7
:101B88005400C200754700754800754900754A0041
:101B980030041A0557E557D394504011755700C2C1
:101BA80004754D00754E00754F0075500030011DCD
:101BB8000556E55670020555D3E55694F4E5559457
:101BC80001400A755500755600C201D203D0D0D025
:021BD800E032F9
:0300230002226650
:10226600752200752300309803C29832309902C255
:0122760099CE
:012277003234
:030043000222890D
:0D228900C0E0E59A30E003539AFED0E03249
:0E00140041020000C101C103C100C104C102CC
:10197600E4F524F525F526F54DF54EF54FF550F52C
:1019860047F548F549F54A7B017A0079007D09FC5F
:10199600FF7E80121FB87E007F0012200E300740A7
:1019A600C2070526E526D394044003E4F526E5267A
:1019B60024FE601B240270727E027F017C027D7B06
:1019C6007A027B7E900280E0F52D120960805B7EB4
:1019D600027F367C027D7B7A027B7E120046804A3D
:1019E600300247C2027B017A02790112204D503A39
:1019F600900201E090027BF0900202E0541F9002F8
:101A06007CF0900203E0543F90027DF0900204E0E7
:101A16005407900280F0900205E0543F90027EF059
:101A2600900206E0547F90027FF030031AC2037BD7
:101A3600017A0079007D087C007F007E80121FB845
:0D1A46007E007F0012200E75E13F0219A303
:0C102D008E2D8F2E8C2F8D308A318B324F
:101039009002B174FFF08F828E83A3E0FFE4FCFD80
:10104900FE78081213C7E4FFE4FDFCC004C005C024
:1010590006C007852E82852D83E0FFE4FE781012F5
:1010690013C7E4D003D002D001D0002BFBE43AFA35
:10107900ED39F9E438F8A3A3E0FFE4FCFDFEEB2F1A
:10108900FFEE3AFEED39FDEC38FC9002B21213DAAC
:10109900853082852F83A3E0FFE4FCFDFE780812EA
:1010A90013C7E4FFE4FDFCC004C005C006C0078502
:1010B9003082852F83E0FFE4FE78101213C7E4D055
:1010C90003D002D001D0002BFBE43AFAED39F9E460
:1010D90038F8A3A3E0FFE4FCFDFEEB2FFFEE3AFE98
:1010E900ED39FDEC38FC9002B61213DAAB3DAA3E9D
:1010F900A93F9000011212EDFFE4FCFDFE780812F1
:1011090013C7E4FFE4FDFCC004C005C006C0071214
:1011190012D4FFE4FE78101213C7E4D003D002D032
:1011290001D0002BFFE43AFEED39FDE438FCC004A0
:10113900C005C006C007AB3DAA3EA93F90000212F8
:1011490012EDFFE4FCFDFED003D002D001D000EB8C
:101159002FFFEE3AFEED39FDEC38FC9002BA12137E
:10116900DA9002B2E0FCA3E0FDA3E0FEA3E0FF9069
:1011790002BAE0F8A3E0F9A3E0FAA3E0FBC3121373
:10118900A3401B9002B6E0FCA3E0FDA3E0FEA3E0B0
:10119900FFA3E0F8A3A3A3E0D31213A34002C32241
:1011A900853282853183E0FEA3E07C002400FFECD8
:1011B9003E9002BEF0FCA3EFF0FD853682853583B3
:1011C900E0FEA3E07A002400FFEA3E9002C0F0A30B
:1011D900EFF0853A82853983E0FEA3E02400FFEA37
:1011E9003E9002C2F0A3EFF0853482853383E0FE9E
:1011F900A3E02400FFEA3E9002C4F0A3EFF0853893
:1012090082853783E0FEA3E02400FFEA3E9002C610
:10121900F0A3EFF0853C82853B83E0FEA3E0240048
:10122900FFEA3E9002C8F0A3EFF085418285408332
:10123900E0FEA3E02400FFEA3EFE9002CAF0A3EF1D
:10124900F0E49002B1F0C3EF9DEE9C40159002C40A
:10125900E0FEA3E0FFD39002CBE09F9002CAE09E9C
:1012690040079002B1E04401F09002C0E0FEA3E023
:10127900FF9002CAE0FCA3E0FDC39FEC9E400F90E3
:1012890002C6E0FEA3E0FFD3ED9FEC9E400790026B
:10129900B1E04402F09002C2E0FEA3E0FFC3ED9F7B
:1012A900EC9E40159002C8E0FEA3E0FFD39002CB6C
:1012B900E09F9002CAE09E40079002B1E04404F02A
:0A12C9009002B1E0B40702C322D383
:0112D30022F8
:041E78008C2D8D2EF2
:101E7C00EF7802C333CE33CED8F92400FFEE348290
:101E8C00FE7B017A0279B17D047C00121FB8852E8D
:101E9C0082852D83E0FF9002B1E0FEEF6E703B85F2
:101EAC002E82852D83A3E0FF9002B2E0FEEF6E70D0
:101EBC0029852E82852D83A3A3E0FF9002B3E0FE3B
:101ECC00EFB50616852E82852D83A3A3A3E0FF9084
:0B1EDC0002B4E0FEEFB50602D322C303
:011EE70022D8
:0C0046008E278F288C298D2A8A2B8B2C6A
:10005200C208AA06A9077B01AF4B12058F40030213
:100062000581E5282424F582E43527F583E0654DF2
:100072007031E5282425F582E43527F583E0B54E75
:1000820022E5282426F582E43527F583E0B54F13CF
:10009200E5282427F582E43527F583E065507003CF
:1000A20002058EE4900281F0900281E0FF2424FD9B
:1000B200E433FCE5282DF582E5273CF583E0FE7468
:1000C2004D2FF8A606900281E004F0E0B404D9D2E4
:1000D20004E5282406F582E43527F583E0FEE528C9
:1000E2002407F582E43527F583E07C002400FFEC49
:1000F2003EFEE5282424FDE43527FC121E78400349
:1001020002058EE4900281F0900281E0F975F0021E
:10011200A4FFAEF02428FDE43EFCE5282DF582E59F
:10012200273CF583E0C454F0FDEF2429FFE43EFEB2
:10013200E5282FF582E5273EF583E0540F4DFF7445
:100142008229F582E43402F583EFF0E975F002A426
:10015200FFAEF0242EFDE43EFCE5282DF582E527D6
:100162003CF583E0C454F0FDEF242FFFE43EFEE5AE
:10017200282FF582E5273EF583E0540F4DFF748565
:1001820029F582E43402F583EFF0900281E004F075
:10019200E06403600302010AE4900281F0900281AC
:1001A200E0F9C394024003020278E9FF7E0024349E
:1001B200FDEE33FCE5282DF582E5273CF583E0FDD5
:1001C200748829F582E43402F583EDF0EF2438FFD8
:1001D200EE33FEE5282FF582E5273EF583E0FF7436
:1001E2008C29F582E43402F583EFF0E9FF7E0024E6
:1001F2003CFDEE33FCE5282DF582E5273CF583E056
:10020200FD749029F582E43402F583EDF0EF243693
:10021200FFEE33FEE5282FF582E5273EF583E0FF6A
:10022200748A29F582E43402F583EFF0E9FF7E0057
:10023200243AFDEE33FCE5282DF582E5273CF583D3
:10024200E0FD748E29F582E43402F583EDF0EF24AB
:100252003EFFEE33FEE5282FF582E5273EF583E0EB
:10026200FF749229F582E43402F583EFF090028163
:10027200E004F002019FE5282441F582E43527F5E8
:1002820083E0FFE4FCFDFE78101213C7E4FFFEE4F6
:10029200FCC004C005C006C007E5282440F582E47E
:1002A2003527F583E0FFE4FD78181213C7D003D099
:1002B20002D001D000E42BFFE43AFEE439FDEC3831
:1002C200FCC004C005C006C007E5282442F582E44C
:1002D2003527F583E0FFE4FCFDFE78081213C7E43E
:1002E200FDFCD003D002D001D0002BFBEA3EFAED98
:1002F20039F9EC38F8E5282443F582E43527F5830B
:10030200E0FFE4FEEB2FFFEE3AFEED39FDEC38FCA8
:100312009002941213DAE4900281F0900281E0FFDD
:100322002434FDE433FCE5282DF582E5273CF583F2
:10033200E0FE74A02FF582E43402F583EEF0900221
:1003420081E004F0E0B410D37E027F827C027D85DE
:100352007A027B88C00375330275348A753502755B
:10036200368C75370275388E753902753A90753B41
:1003720002753C92753D0185293E852A3F852B40B9
:10038200852C41D00312102D400302058EE54CC48A
:100392003354E0FFE551541F4FFEE5282405F58252
:1003A200E43527F583E0FD6E600AEF6D6006ED60CF
:1003B2000302058EE5282404F582E43527F583E05F
:1003C20020E403020479E4FFFEFDFC900294E0F8CD
:1003D200A3E0F9A3E0FAA3E0FBD31213A3500302B4
:1003E200058E900294E0FCA3E0FDA3E0FEA3E0C32F
:1003F2009401FFEE9400FEED9400FDEC9400FC905D
:1004020002941213DA900294E0FCA3E0FDA3E0FE52
:10041200A3E0FF78181213B49002ACEFF0900294AC
:10042200E0FCA3E0FDA3E0FEA3E0FF78101213B40A
:100432009002ADEFF0900294E0FCA3E0FDA3E0FE99
:10044200A3E0FF78081213B49002AEEFF09002948A
:10045200E0FCA3E0FDA3E0FEA3E0FF9002AFEFF01B
:10046200E54B25E025E02405FF7B017A027998120D
:1004720017A9400302058EE5282404F582E43527F6
:10048200F583E054E0706A7B017A0079007D08FC14
:10049200FF7E80121FB8E4900281F0900281E0FF9B
:1004A200C394085035EF2414FFE433FEE5282FF5FA
:1004B20082E5273EF583C083C082E0FF900281E09F
:1004C2002400F582E43400F583E0FEEF4ED082D0C2
:1004D20083F0900281E004F080C1122005D205D29F
:1004E20006D201E4F555F556F559F55A900200F099
:1004F20022E5282404F582E43527F583E054E064FC
:1005020080600302058E900200E0F4F07B017A0025
:1005120079007D087C007F007E80121FB8E4900283
:1005220081F0900281E0F9C394085046E9FF7E0011
:100532002414FDEE33FCE5282DF582E5273CF583F6
:10054200E0FD900200E0FCED5CFD740029F582E420
:100552003400F583E04DFDEF2414FFEE33FEE52871
:100562002FF582E5273EF583EDF0900281E004F05D
:1005720080B0122005D205D206E4F559F55A22E4DC
:0C058200F557C204F557F54EF54FF55043
:01058E00224A
:0C0960008E278F288C298D2A8A2B8B2C47
:10096C00AA06A9077B01E4FF120D2C4003020D1E01
:10097C00852882852783E065477022A3E0B5481D52
:10098C00852882852783A3A3E0B549118528828514
:10099C002783A3A3A3E0654A7003020D2BE4900206
:1009AC0081F0A3F0900281E0FEA3E0FF2528F58200
:1009BC00E5273EF583E0FD74472FF8A605900282EB
:1009CC00E004F07006900281E004F0900281E07087
:1009DC0004A3E0640470CDD200E5282416F582E46B
:1009EC003527F583E0FEE5282417F582E43527F555
:1009FC0083E0FDEDFF900287EEF0A3EFF0E52824F5
:100A0C0018F582E43527F583E0FEE5282419F582F4
:100A1C00E43527F583E0FDEDFF900289EEF0A3EFBE
:100A2C00F0E5282414F582E43527F583E05460645E
:100A3C00406003020AF4900200F0900287E0FEA3EB
:100A4C00E0FF120026900287E0FEA3E0FFE52824D9
:100A5C002CFDE43527FAA9057B017D087C00121DCD
:100A6C00904003020AF420832F900288E02408FFB0
:100A7C00900287E03400FEE528241AFDE43527FABD
:100A8C00A9057B017D027C00121D905043D205D23A
:100A9C0006E4F559F55A8038E54CC43354E0FFE5CB
:100AAC0051541F4F900000F0A3E54BF0D205D20635
:100ABC00E4F559F55A900288E02408FF900287E08B
:100ACC003400FE7B017A0079007D027C00121D90BF
:100ADC007B017A0079007D087C007F007E80121FEC
:100AEC00B87E007F0012200EE5282414F582E43530
:100AFC0027F583E0546064606003020C43900200AD
:100B0C00F0C390028AE09480900289E09400400344
:100B1C00020C43E0FAA3E0FB7C007D0CFFAE02125A
:100B2C00134E900283EEF0A3EFF07C007D0CAF032C
:100B3C00AE0212134EED4C600BE004F07006900206
:100B4C0083E004F0E4900281F0A3F0900284E024AE
:100B5C0001FF900283E03400FE900281E0FCA3E0F0
:100B6C00FD2401FBE43CFAC3EB9FEA9E4003020C1C
:100B7C0009ED04FFAA27A9287B01120D2C400302C2
:100B8C000D1EE4900285F0A3F0900285E0FEA3E038
:100B9C00FFC39430EE94005053EF2404FFE43EFE68
:100BAC00E5282FF582E5273EF583E0FF900285E0EE
:100BBC00FCA3E0FD900281E0FAA3E0F5828A837445
:100BCC00301213E6E5822DF582E5833CF583E58250
:100BDC002400F582E5833400F583EFF0900286E083
:100BEC0004F070A5900285E004F0809D900282E0F4
:100BFC0004F07006900281E004F0020B579002871B
:100C0C00E0FEA3E0FF120026900289E0FEA3E0784C
:100C1C0002C333CE33CED8F9FDAC067B017A007912
:100C2C0000900287E0FEA3E0FF121D905009D20550
:100C3C00D206E4F559F55AE5282414F582E4352753
:100C4C00F583E0544C64486003020CF0852A8285DD
:100C5C002983E0FFE5282424F582E43527F583EF8A
:100C6C00F0852A82852983A3E0FFE5282425F582D7
:100C7C00E43527F583EFF0852A82852983A3A3E049
:100C8C00FFE5282426F582E43527F583EFF0E528E7
:100C9C002427F582E43527F583E52DF0852C828514
:100CAC002B83E0FFE5282428F582E43527F583EF34
:100CBC00F0852C82852B83A3E0FFE5282429F5827F
:100CCC00E43527F583EFF0E528241CFFE43527FAFB
:100CDC00A9077B017F021217A95044D205D206E462
:100CEC00F559F55AE5282414F582E43527F583E007
:100CFC00544C64447029E5282424FFE43527FAA9D0
:100D0C00077B01121E075017D205D206E4F559F5E0
:0F0D1C005A22E4F554C200F547F548F549F54A67
:010D2B0022A5
:102194007B017A0079007D0A7C007F007E80121F1B
:1021A400B8900009E0F54B900008E0C4135407F51B
:0D21B4004CE0541FF5517E007F0002200E0C
:09200500E5282414FFE43527FE50
:10200E00C290C291C292C293D290008F828E83E010
:10201E00F5A0C290D291008F828E83A3E0F5A0C26C
:10202E0091D292008F828E83A3A3E0F5A0C292D2AA
:0F203E0093008F828E83A3A3A3E0F5A0C2932209
:101EE80025E025E0240290000512132C90000674CA
:0B1EF8008012132C900007E412132C42
:061F03008B428A43894471
:101F0900E4F545F5469000021212EDF546754503D4
:101F1900AB42AA43A9449000021212ED2401FFE446
:101F290033FED3E5459FEE6480F8748098500F85A1
:101F390045827583001212ED6246054580D28545BA
:091F490082758300E54602132CA9
:061F5200AB2EAA2FA930FE
:061F58008B428A4389441C
:101F5E00C20AE4F545F5461212D464AA70499000FF
:101F6E00011212ED6455703F754603900002121275
:101F7E00EDF545AB42AA43A9449000021212ED249E
:101F8E0003FFE433FEC3E5469FEE6480F874809849
:101F9E00500F8546827583001212ED62450546800C
:091FAE00D2E5457002D20AA20A34
:011FB7002207
:061BDA008B3E8A3F8940AA
:101BE000E4F541FFFDFC74AA12131AAB3EAA3FA90B
:101BF00040900001745512132C90000274031213CC
:101C00002C900003742012132C900004121EFFE489
:101C1000FFEFC394065018C299AB3EAA3FA9408F6C
:101C2000827583001212EDF5990F2099E480FBC2B2
:101C300098D29CE4FFE4FCFD2098100DBD00010C3F
:101C4000C3ED94E0EC942E40EF8033AB3EAA3FA965
:101C5000408F82758300E59912132CC2980FBF093B
:101C6000D4AB3EAA3FA940121F585012AB3EAA3F28
:101C7000A9409000021212EDB40603754101C29C06
:021C8000AF4172
:011C8200223F
:0817A9008F2E8B2F8A3089314D
:1017B100E4F532F53CF53DC209FB7A007933121BA1
:1017C100DAEF7003A20922AB2FAA30A93174AA1251
:1017D100131AAB2FAA30A931900001745512132CA2
:1017E100900002741612132C900003742212132C11
:1017F100900004740212132C900005E52E121EF1C4
:10180100E4F532E532C39419502EE4F53CF53DC2BE
:1018110099AB2FAA30A931853282F5831212EDF5E9
:101821009905322099DD053DE53D7002053CC394E3
:10183100D0E53C940740EC22C298E4F532D29CE416
:10184100F53CF53D209813053DE53D7002053CC38F
:1018510094E0E53C942E40EC8036AB2FAA30A931C0
:10186100853282758300E59912132CC2980532E501
:1018710032B405CBAB2FAA30A931121F585011AB8E
:101881002FAA30A9319000031212EDB42202D2091D
:04189100C29CA2094A
:011895002230
:0816A4008F088B098A0A890BEB
:1016AC00E4F50CF50DF50EC20BFB7A00790F121B4D
:1016BC00DAEF7003A20B22AB09AA0AA90B74AA12C7
:1016CC00131AAB09AA0AA90B900001745512132C1A
:1016DC00900002740612132C900003742112132C28
:1016EC00900004740212132C900005E508121EF1F0
:1016FC00E4F50CE50CC39409501AC299AB09AA0A7B
:10170C00A90B850C827583001212EDF599050C203E
:10171C0099E180FBC298E4F50CD29CE4F50DF50E32
:10172C00209816050EE50E7002050DC394E0E50D2C
:10173C00942E40ECC29CA20B22AB09AA0AA90B85E1
:10174C000C82758300E59912132CC298050CE50CDC
:10175C00B415C8AB09AA0AA90B121F585011AB0932
:10176C00AA0AA90B9000031212EDB42102D20BC2EB
:10177C009CAB09AA0AA90BE51312131AAB09AA0A06
:10178C00A90B900001E51412132C900002E5151220
:0C179C00132C900003E51612132CA20B76
:0117A800221E
:080D2C008F2E8B2F8A308931D4
:100D3400E4F532F533F534C208FB7A007935121B39
:100D4400DAEF7003A20822AB2FAA30A93174AA12D9
:100D5400131AAB2FAA30A931900001745512132C29
:100D6400900002740612132C900003742112132CA9
:100D7400900004740212132CE52E121EE8E4F532DE
:100D8400E532C39409501AC299AB2FAA30A9318510
:100D940032827583001212EDF59905322099E180B3
:100DA400FBC298E4F532D29CE4F533F53420981470
:100DB4000534E53470020533C394E0E533942E40E2
:100DC400EC020EABAB2FAA30A931853282758300B9
:100DD400E59912132CC2980532E532B415CAAB2F2B
:100DE400AA30A931121F585010AB2FAA30A9319044
:100DF40000031212ED64216003020F94E4F532AF94
:100E04003274042FF582E433F583AB2FAA30A93171
:100E14001212EDFD74252FF582E433F583ED1213E0
:100E24002C0532E532B410D7AB2FAA30A93174AAFD
:100E340012131AAB2FAA30A9319000017455121362
:100E44002C900002740612132C90000374211213C8
:100E54002C900004740212132CE52E25E025E004E6
:100E6400121EEEE4F532E532C39409501AC299AB6E
:100E74002FAA30A9318532827583001212EDF599BB
:100E840005322099E180FBC298E4F532D29CE4F566
:100E940033F5342098160534E53470020533C394D1
:100EA400E0E533942E40ECC29CA20822AB2FAA307A
:100EB400A931853282758300E59912132CC29805F5
:100EC40032E532B415C8AB2FAA30A931121F5850DD
:100ED40010AB2FAA30A9319000031212ED642160E7
:100EE40003020F94E4F532AF3274042FF582E43335
:100EF400F583AB2FAA30A9311212EDFD74152FF52D
:100F040082E433F583ED12132C0532E532B410D7A5
:100F1400AB2FAA30A93174AA12131AAB2FAA30A985
:100F240031900001745512132C90000274061213B0
:100F34002C900003742112132C90000474021213D9
:100F44002CE52E25E025E0121EEEE4F532E532C351
:100F54009409501AC299AB2FAA30A93185328275EF
:100F640083001212EDF59905322099E180FBC298B5
:100F7400E4F532D29CE4F533F5342098180534E5D1
:100F84003470020533C394E0E533942E40ECC29CE4
:100F9400C208A20822AB2FAA30A9318532827583F8
:100FA40000E59912132CC2980532E532B415C6D265
:100FB40094AB2FAA30A931121F585011AB2FAA306D
:100FC400A9319000031212EDB42102D208C29CABE5
:100FD4002FAA30A931E53912131AAB2FAA30A9313F
:100FE400900001E53A12132C900002E53B12132CF9
:100FF400900003E53C12132CE4F532AF3274152F44
:10100400F582E433F583AB2FAA30A9311212EDFD3A
:1010140074142FF582E433F583ED12132C0532E5B5
:0810240032B420D7C294A208E7
:01102C0022A1
:08058F008F2D8B2E8A2F89307D
:10059700E4F531F532F533C209FB7A007934121BE1
:1005A700DAEF7003A20922AB2EAA2FA93074AA1280
:1005B700131AAB2EAA2FA930900001745512132CD1
:1005C700900002740612132C900003742112132C4E
:1005D700900004740212132CE52D25E025E0240574
:1005E700121EEEE4F531E531C39409501AC299ABF6
:1005F7002EAA2FA9308531827583001212EDF59945
:1006070005312099E180FBC298E4F531D29CE4F5ED
:1006170032F5332098140533E53370020532C3945D
:10062700E0E532942E40EC0207E9AB2EAA2FA93061
:10063700853182758300E59912132CC2980531E53F
:1006470031B415CA121F525010AB2EAA2FA93090E1
:1006570000031212ED642160030208CDE4F531AF07
:100667003174042FF582E433F583AB2EAA2FA9301A
:100677001212EDFD74352FF582E433F583ED121375
:100687002C0531E531B410D7AB2EAA2FA93074AAA7
:1006970012131AAB2EAA2FA930900001745512130A
:1006A7002C900002740612132C900003742112136D
:1006B7002C900004740212132CE52D0425E025E08C
:1006C700121EEEE4F531E531C39409501AC299AB15
:1006D7002EAA2FA9308531827583001212EDF59964
:1006E70005312099E180FBC298E4F531D29CE4F50D
:1006F70032F5332098140533E53370020532C3947D
:10070700E0E532942E40EC0207E9AB2EAA2FA93080
:10071700853182758300E59912132CC2980531E55E
:1007270031B415CA121F525010AB2EAA2FA9309000
:1007370000031212ED642160030208CDE4F531AF26
:100747003174042FF582E433F583AB2EAA2FA93039
:100757001212EDFD74252FF582E433F583ED1213A4
:100767002C0531E531B410D7AB2EAA2FA93074AAC6
:1007770012131AAB2EAA2FA9309000017455121329
:100787002C900002740612132C900003742112138C
:100797002C900004740212132CE52D121EE8E4F5C8
:1007A70031E531C39409501AC299AB2EAA2FA9304B
:1007B7008531827583001212EDF59905312099E193
:1007C70080FBC298E4F531D29CE4F532F5332098EA
:1007D700160533E53370020532C394E0E532942EF3
:1007E70040ECC29CA20922AB2EAA2FA930853182E8
:1007F700758300E59912132CC2980531E531B415BC
:10080700C8121F525010AB2EAA2FA9309000031206
:1008170012ED642160030208CDE4F531AF317404B1
:100827002FF582E433F583AB2EAA2FA9301212EDF0
:10083700FD74152FF582E433F583ED12132C053182
:10084700E531B410D7AB2EAA2FA93074AA12131A08
:10085700AB2EAA2FA930900001745512132C9000CB
:1008670002740612132C900003742112132C9000AB
:1008770004740212132CE52D25E025E004121EEE68
:10088700E4F531E531C39409501AC299AB2EAA2F6A
:10089700A9308531827583001212EDF59905312053
:1008A70099E180FBC298E4F531D29CE4F532F53347
:1008B7002098180533E53370020532C394E0E5321A
:1008C700942E40ECC29CC209A20922AB2EAA2FA9E2
:1008D70030853182758300E59912132CC298053152
:1008E700E531B415C6D294121F525011AB2EAA2F60
:1008F700A9309000031212EDB42102D209C29CABB9
:100907002EAA2FA930E53812131AAB2EAA2FA93019
:10091700900001E53912132C900002E53A12132CCE
:10092700900003E53B12132CE4F531AF3174152F1A
:10093700F582E433F583AB2EAA2FA9301212EDFD11
:1009470074142FF582E433F583ED12132C0531E58A
:0809570031B430D7C294A209AB
:01095F002275
:06204D008B278A28892977
:10205300E4F52AC2081221C140317F651220944061
:102063002AE52AC39407501C121D0FAB27AA28A9DF
:1020730029852A82758300EF12132CC20A12227853
:10208300052A80DDD20A122278D208122252A2082F
:01209300222A
:061E07008B2E8A2F8930AA
:101E0D00C208E490028BF09000041212EDFFC3940F
:101E1D000D4015EFD39417500FE92404F9E43AFA65
:101E2D001212D4444012131A1221C140387F641289
:101E3D002094403190028BE0FFC39406501EAB2ED0
:101E4D00AA2FA9308F827583001212EDFF1220DAAE
:101E5D005002C32290028BE004F080D8E4FF1220E0
:0A1E6D00DA4002D208122252A20845
:011E77002248
:05000300E4F531F532C7
:0100080022D5
:1021C100D285120003D28412000330851130840EAF
:1021D100C285120003C284120003C2098002D2091F
:0221E100A20951
:0121E30022D9
:10225200C284120003C285120003D284120003D288
:0422620085020003EE
:10227800A20A9285120003D284120003C2840200CB
:012288000352
:10222100D285120003D284120003A285920A120001
:0822310003C284120003A20A9B
:012239002282
:10209400EF33920A122278EFA2E6920A122278EF24
:1020A400A2E5920A122278EFA2E4920A122278EFB1
:1020B400A2E3920A122278EFA2E2920A122278EFA5
:1020C400A2E1920A122278EF13920A1222781222C3
:0520D400219209A209A0
:0120D90022E4
:1020DA00EF13920A122278EFA2E1920A122278EF03
:1020EA00A2E2920A122278EFA2E3920A122278EF6F
:1020FA00A2E4920A122278EFA2E5920A122278EF5B
:10210A00A2E6920A122278EF33920A122278122257
:05211A00219209A20959
:01211F00229D
:101D0F001222219209A209E4335401FF12222192D7
:101D1F0009A209E433FE25E0540242071222219260
:101D2F0009A209E433FE25E025E0540442071222FC
:101D3F00219209A209E433FE3333335408420712C8
:101D4F0022219209A209E433FEC454104207122241
:101D5F00219209A209E433FEC43354204207122210
:101D6F00219209A209E433FEC433335440420712CF
:101D7F0022219209A209E433C4333333548042073A
:011D8F002231
:0622B500C2AF43E78022E6
:0922AC0053E77FE4F5E6D2AF220E
:0B22A1001222B575E64675E6B9002272
:10223A00AD07AC068CE3EDF5E453E5F843E501128E
:08224A0022A11222ACAFE22236
:10002600EE5401FCAD074D6002AE048EE3E4F5E448
:0C00360053E5F843E5031222A10222ACBE
:10216400AB07AA068AE3EBF5E453E5F843E5028DF1
:10217400E21222A1E4F5E253E5F843E50175E646EF
:1021840075E6B9001222ACE5E2B50502D322C322FA
:0A1D90008C2E8D2F8B308A318932A2
:101D9A00E4F535F536D3E52F9400E52E940240019B
:101DAA0022EE5401F5338F34E534252FFDE5333522
:101DBA002EFCD3ED9400EC94024001228E338F3432
:101DCA00C3E536952FE535952E5030AB30AA31A9AB
:101DDA00328536828535831212EDFDAF34AE331269
:101DEA0021649208200802C3220536E536700205EE
:0C1DFA00350534E53470C9053380C5D3CD
:011E060022B9
:0A1FB8008C2F8D308B318A32893373
:101FC2008E348F351222B5E4F536F537C3E53795F1
:101FD20030E536952F5029AF35AE3412223AAB3167
:101FE200AA32A933853782853683EF12132C053541
:101FF200E535700205340537E53770D0053680CCFB
:032002000222AC0B
:03000000021C835C
:0C1C8300787FE4F6D8FD75815A021CCA77
:1012D400BB010689828A83E0225002E722BBFE0218
:0912E400E32289828A83E493224B
:1012ED00BB010CE58229F582E5833AF583E02250B6
:1012FD0006E92582F8E622BBFE06E92582F8E22200
:0D130D00E58229F582E5833AF583E4932219
:10131A00BB010689828A83F0225002F722BBFE01B2
:02132A00F322AC
:10132C00F8BB010DE58229F582E5833AF583E8F0F7
:10133C00225006E92582C8F622BBFE05E92582C8A3
:02134C00F2228B
:10134E00BC000BBE0029EF8DF084FFADF022E4CC83
:10135E00F875F008EF2FFFEE33FEEC33FCEE9DEC4C
:10136E00984005FCEE9DFE0FD5F0E9E4CEFD22ED92
:10137E00F8F5F0EE8420D21CFEADF075F008EF2FDC
:10138E00FFED33FD4007985006D5F0F222C398FDCD
:05139E000FD5F0EA226A
:10212000C2D5E830E70FB2D5E4C39BFBE49AFAE4EA
:1021300099F9E498F8EC30E717B2D5122156121449
:1021400033E4C39BFBE49AFAE499F9E498F880033A
:1021500012143330D50DE4C39FFFE49EFEE49DFDD1
:04216000E49CFC22DD
:1013A300EB9FF5F0EA9E42F0E99D42F0E89C45F0A0
:0113B3002217
:1013B400E8600FECC313FCED13FDEE13FEEF13FF17
:0313C400D8F1223B
:1013C700E8600FEFC333FFEE33FEED33FDEC33FC84
:0313D700D8F12228
:0C13DA00ECF0A3EDF0A3EEF0A3EFF02286
:1013E600F5F0C582A4C582C5F0C583A42583F5831F
:0113F60022D4
:101C8F00022206E493A3F8E493A34003F68001F243
:101C9F0008DFF48029E493A3F85407240CC8C33356
:101CAF00C4540F4420C8834004F456800146F6DF25
:101CBF00E4800B010204081020408090000EE47EA7
:101CCF00019360BCA3FF543F30E509541FFEE4931A
:101CDF00A360010ECF54C025E060A840B8E493A3E1
:101CEF00FAE493A3F8E493A3C8C582C8CAC583CA0C
:101CFF00F0A3C8C582C8CAC583CADFE9DEE780BEC4
:0100220000DD
:1013F70075F008758200EF2FFFEE33FECD33CDCCAD
:1014070033CCC58233C5829BED9AEC99E58298402F
:101417000CF582EE9BFEED9AFDEC99FC0FD5F0D60C
:10142700E4CEFBE4CDFAE4CCF9A88222B800C1B936
:101437000059BA002DEC8BF084CFCECDFCE5F0CB74
:10144700F97818EF2FFFEE33FEED33FDEC33FCEBAD
:1014570033FB10D703994004EB99FB0FD8E5E4F968
:10146700FA227818EF2FFFEE33FEED33FDEC33FC55
:10147700C933C910D7059BE99A4007EC9BFCE99A49
:10148700F90FD8E0E4C9FAE4CCFB2275F010EF2F8E
:10149700FFEE33FEED33FDCC33CCC833C810D7078E
:1014A7009BEC9AE899400AED9BFDEC9AFCE899F8C9
:0E14B7000FD5F0DAE4CDFBE4CCFAE4C8F9225C
:00000001FF
