:0B238400EF1FAC0670011E4C70F6222B
:1022F4001222D2122282C2B7C2B5C2B67FE87E03CE
:0B23040012238475E13F12173F80FB9D
:1022D2007527077528007529F87B057D017F011296
:1022E2001B377BE87A7F7D017F01121560C2ACD279
:0222F200AF2219
:101560008F248D258A268B27E52420E0030216533D
:10157000E52570555389F0AE26AF27AB07AA06EADA
:101580003395E0F9F8C374FF9BFF74FF9AFEE4996A
:10159000FDE498FCE4FB7A01F9F812220E8F8CAE80
:1015A00026AF27AB07AA06EA3395E0F9F8C374FF24
:1015B0009BFF74FF9AFEE499FDE498FCE4FB7A013A
:1015C000F9F812220EAF038F8AE5256401705AE5FF
:1015D0008954F04401F589AE26AF27AB07AA06EA85
:1015E0003395E0F9F8C374FF9BFF74FF9AFEE4990A
:1015F000FDE498FCE4FB7A01F9F812220E8F8CAE20
:1016000026AF27AB07AA06EA3395E0F9F8C374FFC3
:101610009BFF74FF9AFEE499FDE498FCE4FB7A01D9
:10162000F9F812220EAF038F8AE525B4020EE58980
:1016300054F04402F589AF278F8C8F8AE525B403D7
:101640000EE58954F04403F589AF278F8C8F8AD239
:101650008CD2A9E52420E10302173EE525705553FD
:10166000890FAE26AF27AB07AA06EA3395E0F9F853
:10167000C374FF9BFF74FF9AFEE499FDE498FCE4B9
:10168000FB7A01F9F812220E8F8DAE26AF27AB0739
:10169000AA06EA3395E0F9F8C374FF9BFF74FF9A3A
:1016A000FEE499FDE498FCE4FB7A01F9F812220EBD
:1016B000AF038F8BE5256401705AE589540F441000
:1016C000F589AE26AF27AB07AA06EA3395E0F9F80D
:1016D000C374FF9BFF74FF9AFEE499FDE498FCE459
:1016E000FB7A01F9F812220E8F8DAE26AF27AB07D9
:1016F000AA06EA3395E0F9F8C374FF9BFF74FF9ADA
:10170000FEE499FDE498FCE4FB7A01F9F812220E5C
:10171000AF038F8BE525B4020EE589540F4420F505
:1017200089AF278F8D8F8BE525B4030EE589540F84
:0F1730004430F589AF278F8D8F8BD28ED2AB22AD
:101B3700EF30E070ED146010146013146016240386
:101B47007016C29FC29E8010C29FD29E800AD29FEB
:101B5700C29E8004D29FD29EEB6404701DE527B419
:101B670006054387808008E527B4070653877F85E6
:101B7700299C538EE0438E118028EB640570235314
:101B8700890F438920538EFEE527B40605438780D6
:101B97008008E527B4070953877FAE298E8D8E8B82
:101BA700D28ED2ACEF30E14CED14600F14601414F8
:101BB70060192403701B539A3F8016539A3F439A28
:101BC70040800E539A3F439A808006539A3F439A28
:101BD700C0EB6404701BE527B40608538EE3438EFD
:101BE70018800BE527B40709538EE3438E10852928
:051BF7009C43AF012238
:101A5700EF30E029ED7008EBF452945293801EBDED
:101A67000109EB4294EBF452938012BD0206EBF4AA
:101A770052948006BD0306EB4294EB4293EF30E1AC
:101A870029ED7008EBF452925291801EBD0109EBCB
:101A97004292EBF452918012BD0206EBF45292800F
:101AA70006BD0306EB4292EB4291EF30E229ED705F
:101AB70008EBF452965295801EBD0109EB4296EB56
:101AC700F452958012BD0206EBF452968006BD03D0
:101AD70006EB4296EB4295EF30E329ED7008EBF405
:101AE70052B252B1801EBD0109EB42B2EBF452B1C2
:101AF7008012BD0206EBF452B28006BD0306EB422C
:101B0700B2EB42B1EF30E427ED7007EBF452B45279
:101B1700B322BD0108EB42B4EBF452B322BD020677
:101B2700EBF452B48006BD0306EB42B4EB42B3229A
:06000E00C107C105C10697
:03000B00021BFCD9
:101BFC00C0E0C0D0758C80758A17200702D207050B
:101C0C005AE55AD394644005755A00D20230051730
:101C1C000555E555B40102D2B7E555D394144007E8
:101C2C00C2B7755500C205300629055CE55C70022B
:101C3C00055BE55C6401455B7004D2B5C2B6C3E5D7
:101C4C005C94C8E55B9400400A755B00755C00C24F
:101C5C00B5D2B630001A0556E556D39450401175DE
:101C6C005600C200754900754A00754B00754C0052
:101C7C0030041A0559E559D394504011755900C2D6
:101C8C0004754F0075500075510075520030011DE0
:101C9C000558E55870020557D3E55894F4E5579468
:101CAC0001400A755700755800C201D203D0D0D03C
:021CBC00E03214
:0300230002235461
:10235400752200752300309803C29832309902C266
:0123640099DF
:012365003245
:030043000223771E
:0D237700C0E0E59A30E003539AFED0E0325A
:0E00140041020000C101C103C100C104C102CC
:10173F00E4F524F525F526F527F528F54FF550F5B1
:10174F0051F552F549F54AF54BF54C7B017A007985
:10175F00007D09FCFF7E801220A27E007F001220F8
:10176F00F8300740C2070526E526D394044003E46A
:10177F00F526E52624FE601B240270787E027F0189
:10178F007C027D7B7A027B7E900280E0F52F120631
:10179F000E80617E027F367C027D7B7A027B7E1219
:1017AF000046805030024DC2027B017A027901124D
:1017BF00213B503E900201E090027BF0900202E04C
:1017CF00541F90027CF0900203E0543F90027DF092
:1017DF00900204E05407900280F0900205E0543F1D
:1017EF0090027EF0900206E0547F90027FF0C2805C
:1017FF008002D2807B017A0079007D007C027F001D
:10180F007E821220A2C3E5279402501A7400252865
:10181F00F58274003527F583E0B4FF0A0528E52823
:10182F0070E3052780DFC3E52794024004D294803C
:10183F0002C29430031AC2037B017A0079007D083B
:10184F007C007F007E801220A27E007F001220F895
:06185F0075E13F02177065
:0C10C8008E2F8F308C318D328A338B34A8
:1010D4009002B174FFF08F828E83A3E0FFE4FCFDE5
:1010E400FE7808121462E4FFE4FDFCC004C005C0ED
:1010F40006C007853082852F83E0FFE4FE78101256
:101104001462E4D003D002D001D0002BFBE43AFAFD
:10111400ED39F9E438F8A3A3E0FFE4FCFDFEEB2F7E
:10112400FFEE3AFEED39FDEC38FC9002B212147574
:10113400853282853183A3E0FFE4FCFDFE7808124A
:101144001462E4FFE4FDFCC004C005C006C00785CA
:101154003282853183E0FFE4FE7810121462E4D019
:1011640003D002D001D0002BFBE43AFAED39F9E4C4
:1011740038F8A3A3E0FFE4FCFDFEEB2FFFEE3AFEFC
:10118400ED39FDEC38FC9002B6121475AB3FAA4061
:10119400A941900001121388FFE4FCFDFE780812B7
:1011A4001462E4FFE4FDFCC004C005C006C00712DD
:1011B400136FFFE4FE7810121462E4D003D002D05F
:1011C40001D0002BFFE43AFEED39FDE438FCC00405
:1011D400C005C006C007AB3FAA40A9419000021257
:1011E4001388FFE4FCFDFED003D002D001D000EB55
:1011F4002FFFEE3AFEED39FDEC38FC9002BA1214E2
:10120400759002B2E0FCA3E0FDA3E0FEA3E0FF9032
:1012140002BAE0F8A3E0F9A3E0FAA3E0FBC31214D6
:101224003E401B9002B6E0FCA3E0FDA3E0FEA3E079
:10123400FFA3E0F8A3A3A3E0D312143E4002C32209
:10124400853482853383E0FEA3E07C002400FFEC38
:101254003E9002BEF0FCA3EFF0FD85388285378313
:10126400E0FEA3E07A002400FFEA3E9002C0F0A36F
:10127400EFF0853C82853B83E0FEA3E02400FFEA97
:101284003E9002C2F0A3EFF0853682853583E0FEFE
:10129400A3E02400FFEA3E9002C4F0A3EFF0853AF5
:1012A40082853983E0FEA3E02400FFEA3E9002C673
:1012B400F0A3EFF0853E82853D83E0FEA3E02400A9
:1012C400FFEA3E9002C8F0A3EFF085438285428393
:1012D400E0FEA3E02400FFEA3EFE9002CAF0A3EF82
:1012E400F0E49002B1F0C3EF9DEE9C40159002C46F
:1012F400E0FEA3E0FFD39002CBE09F9002CAE09E01
:1013040040079002B1E04401F09002C0E0FEA3E087
:10131400FF9002CAE0FCA3E0FDC39FEC9E400F9047
:1013240002C6E0FEA3E0FFD3ED9FEC9E40079002CF
:10133400B1E04402F09002C2E0FEA3E0FFC3ED9FDF
:10134400EC9E40159002C8E0FEA3E0FFD39002CBD0
:10135400E09F9002CAE09E40079002B1E04404F08E
:0A1364009002B1E0B40702C322D3E7
:01136E00225C
:041F62008C2F8D3003
:101F6600EF7802C333CE33CED8F92400FFEE3482A5
:101F7600FE7B017A0279B17D047C001220A28530B5
:101F860082852F83E0FF9002B1E0FEEF6E703B8505
:101F96003082852F83A3E0FF9002B2E0FEEF6E70E1
:101FA60029853082852F83A3A3E0FF9002B3E0FE4C
:101FB600EFB50616853082852F83A3A3A3E0FF9095
:0B1FC60002B4E0FEEFB50602D322C318
:011FD10022ED
:0C0046008E298F2A8C2B8D2C8A2D8B2E5E
:10005200C208AA06A9077B01AF4D1209F6400302A6
:100062000600E52A2424F582E43529F583E0654F6C
:100072007031E52A2425F582E43529F583E0B5506F
:1000820022E52A2426F582E43529F583E0B55113C9
:10009200E52A2427F582E43529F583E065527003C9
:1000A20002060DE4900281F0900281E0FF2424FD1B
:1000B200E433FCE52A2DF582E5293CF583E0FE7464
:1000C2004F2FF8A606900281E004F0E0B404D9D2E2
:1000D20004E52A2406F582E43529F583E0FEE52AC3
:1000E2002407F582E43529F583E07C002400FFEC47
:1000F2003EFEE52A2424FDE43529FC121F6240035A
:1001020002060DE4900281F0900281E0F975F0029E
:10011200A4FFAEF02428FDE43EFCE52A2DF582E59D
:10012200293CF583E0C454F0FDEF2429FFE43EFEB0
:10013200E52A2FF582E5293EF583E0540F4DFF7441
:100142008229F582E43402F583EFF0E975F002A426
:10015200FFAEF0242EFDE43EFCE52A2DF582E529D2
:100162003CF583E0C454F0FDEF242FFFE43EFEE5AE
:100172002A2FF582E5293EF583E0540F4DFF748561
:1001820029F582E43402F583EFF0900281E004F075
:10019200E06403600302010AE4900281F0900281AC
:1001A200E0F9C394024003020278E9FF7E0024349E
:1001B200FDEE33FCE52A2DF582E5293CF583E0FDD1
:1001C200748829F582E43402F583EDF0EF2438FFD8
:1001D200EE33FEE52A2FF582E5293EF583E0FF7432
:1001E2008C29F582E43402F583EFF0E9FF7E0024E6
:1001F2003CFDEE33FCE52A2DF582E5293CF583E052
:10020200FD749029F582E43402F583EDF0EF243693
:10021200FFEE33FEE52A2FF582E5293EF583E0FF66
:10022200748A29F582E43402F583EFF0E9FF7E0057
:10023200243AFDEE33FCE52A2DF582E5293CF583CF
:10024200E0FD748E29F582E43402F583EDF0EF24AB
:100252003EFFEE33FEE52A2FF582E5293EF583E0E7
:10026200FF749229F582E43402F583EFF090028163
:10027200E004F002019FE52A2441F582E43529F5E4
:1002820083E0FFE4FCFDFE7810121462E4FFFEE45A
:10029200FCC004C005C006C007E52A2440F582E47C
:1002A2003529F583E0FFE4FD7818121462D003D0FB
:1002B20002D001D000E42BFFE43AFEE439FDEC3831
:1002C200FCC004C005C006C007E52A2442F582E44A
:1002D2003529F583E0FFE4FCFDFE7808121462E4A0
:1002E200FDFCD003D002D001D0002BFBEA3EFAED98
:1002F20039F9EC38F8E52A2443F582E43529F58307
:10030200E0FFE4FEEB2FFFEE3AFEED39FDEC38FCA8
:10031200900294121475E4900281F0900281E0FF41
:100322002434FDE433FCE52A2DF582E5293CF583EE
:10033200E0FE74A02FF582E43402F583EEF0900221
:1003420081E004F0E0B410D37E027F827C027D85DE
:100352007A027B88C00375350275368A7537027555
:10036200388C753902753A8E753B02753C90753D35
:1003720002753E92753F01852B40852C41852D42A9
:10038200852E43D0031210C8400302060DE54EC469
:100392003354E0FFE553541F4FFEE52A2405F5824E
:1003A200E43529F583E0FD6E600AEF6D6006ED60CD
:1003B2000302060DE52A2404F582E43529F583E0DB
:1003C20020E403020479E4FFFEFDFC900294E0F8CD
:1003D200A3E0F9A3E0FAA3E0FBD312143E50030218
:1003E200060D900294E0FCA3E0FDA3E0FEA3E0C3AF
:1003F2009401FFEE9400FEED9400FDEC9400FC905D
:100402000294121475900294E0FCA3E0FDA3E0FEB6
:10041200A3E0FF781812144F9002ACEFF090029410
:10042200E0FCA3E0FDA3E0FEA3E0FF781012144F6E
:100432009002ADEFF0900294E0FCA3E0FDA3E0FE99
:10044200A3E0FF780812144F9002AEEFF0900294EE
:10045200E0FCA3E0FDA3E0FEA3E0FF9002AFEFF01B
:10046200E54D25E025E02405FF7B017A027998120B
:10047200196A400302060DE52A2404F582E43529AF
:10048200F583E054E060030205347B017A007900D1
:100492007D08FCFF7E801220A2E4900281F090028F
:1004A20081E0FFC394085035EF2414FFE433FEE5E6
:1004B2002A2FF582E5293EF583C083C082E0FF90B2
:1004C2000281E02400F582E43400F583E0FEEF4E81
:1004D200D082D083F0900281E004F080C11220EF3C
:1004E200E52A2415F582E43529F583E0FFE52A247F
:1004F20014F582E43529F583E04FFFE52A2416F549
:1005020082E43529F583E04FFFE52A2417F582E4DA
:100512003529F583E04F6004D2C18002C2C1D20501
:10052200D206D201E4F557F558F55BF55C9002006E
:10053200F022E52A2404F582E43529F583E054E02B
:100542006480600302060D900200E0F4F07B017A01
:100552000079007D087C007F007E801220A2E4905A
:100562000281F0900281E0F9C394085046E9FF7ECF
:10057200002414FDEE33FCE52A2DF582E5293CF535
:1005820083E0FD900200E0FCED5CFD740029F58241
:10059200E43400F583E04DFDEF2414FFEE33FEE575
:1005A2002A2FF582E5293EF583EDF0900281E004E1
:1005B200F080B01220EFE52A2415F582E43529F502
:1005C20083E0FFE52A2414F582E43529F583E04F20
:1005D200FFE52A2416F582E43529F583E04FFFE58D
:1005E2002A2417F582E43529F583E04F6004D2C14D
:1005F2008002C2C1D205D206E4F55BF55C22E4F5C5
:0B06020059C204F559F550F551F552AE
:01060D0022CA
:0C060E008E298F2A8C2B8D2C8A2D8B2E90
:10061A00AA06A9077B01E4FF120DC740030209E8F5
:10062A00852A82852983E065497022A3E0B54A1D9F
:10063A00852A82852983A3A3E0B54B11852A828561
:10064A002983A3A3A3E0654C70030209F5E4900291
:10065A0081F0A3F0900281E0FEA3E0FF252AF58253
:10066A00E5293EF583E0FD74492FF8A6059002823C
:10067A00E004F07006900281E004F0900281E070DC
:10068A0004A3E0640470CDD200E52A2416F582E4BE
:10069A003529F583E0FEE52A2417F582E43529F5A4
:1006AA0083E0FDEDFF900287EEF0A3EFF0E52A2448
:1006BA0018F582E43529F583E0FEE52A2419F58246
:1006CA00E43529F583E0FDEDFF900289EEF0A3EF12
:1006DA00F0E52A2414F582E43529F583E0546064B0
:1006EA004060030207BE900200F0900287E0FEA37A
:1006FA00E0FF120026900287E0FEA3E0FFE52A242D
:10070A002CFDE43529FAA9057B017D087C00121E1F
:10071A007A40030207BE20832F900288E02408FF54
:10072A00900287E03400FEE52A241AFDE43529FA0E
:10073A00A9057B017D027C00121E7A5043D205D2A4
:10074A0006E4F55BF55C8038E54EC43354E0FFE51A
:10075A0053541F4F900000F0A3E54DF0D205D20686
:10076A00E4F55BF55C900288E02408FF900287E0DC
:10077A003400FE7B017A0079007D027C00121E7A29
:10078A007B017A0079007D087C007F007E80122040
:10079A00A27E007F001220F8900001E0FF90000086
:1007AA00E04FFF900002E04FFFA3E04F6004D2C089
:1007BA008002C2C0E52A2414F582E43529F583E0D3
:1007CA0054606460600302090D900200F0C3900255
:1007DA008AE09480900289E09400400302090DE0C7
:1007EA00FAA3E0FB7C007D0CFFAE021213E9900233
:1007FA0083EEF0A3EFF07C007D0CAF03AE02121380
:10080A00E9ED4C600BE004F07006900283E004F01E
:10081A00E4900281F0A3F0900284E02401FF9002A8
:10082A0083E03400FE900281E0FCA3E0FD2401FB9A
:10083A00E43CFAC3EB9FEA9E40030208D3ED04FFAF
:10084A00AA29A92A7B01120DC740030209E8E490EC
:10085A000285F0A3F0900285E0FEA3E0FFC3943086
:10086A00EE94005053EF2404FFE43EFEE52A2FF5F0
:10087A0082E5293EF583E0FF900285E0FCA3E0FDD6
:10088A00900281E0FAA3E0F5828A8374301214811F
:10089A00E5822DF582E5833CF583E5822400F58225
:1008AA00E5833400F583EFF0900286E004F070A54A
:1008BA00900285E004F0809D900282E004F07006C8
:1008CA00900281E004F0020821900287E0FEA3E092
:1008DA00FF120026900289E0FEA3E07802C333CE1D
:1008EA0033CED8F9FDAC067B017A007900900287F5
:1008FA00E0FEA3E0FF121E7A5009D205D206E4F503
:10090A005BF55CE52A2414F582E43529F583E05485
:10091A004C644860030209BA852C82852B83E0FF68
:10092A00E52A2424F582E43529F583EFF0852C8223
:10093A00852B83A3E0FFE52A2425F582E43529F5F2
:10094A0083EFF0852C82852B83A3A3E0FFE52A247D
:10095A0026F582E43529F583EFF0E52A2427F58286
:10096A00E43529F583E52FF0852E82852D83E0FF76
:10097A00E52A2428F582E43529F583EFF0852E82CD
:10098A00852D83A3E0FFE52A2429F582E43529F59C
:10099A0083EFF0E52A241CFFE43529FAA9077B0135
:1009AA007F0212196A5044D205D206E4F55BF55C5F
:1009BA00E52A2414F582E43529F583E0544C64448D
:1009CA007029E52A2424FFE43529FAA9077B0112B4
:1009DA001EF15017D205D206E4F55BF55C22E4F568
:0B09EA0056C200F549F54AF54BF54CEC
:0109F50022DF
:102282007B017A0079007D0A7C007F007E8012202B
:10229200A2900009E0F54D900008E0C4135407F540
:0D22A2004EE0541FF5537E007F000220F82F
:0920EF00E52A2414FFE43529FE62
:1020F800C290C291C292C2938F828E83E0F5A000F3
:10210800D29000C2908F828E83A3E0F5A000D29176
:1021180000C2918F828E83A3A3E0F5A000D2920023
:10212800C2928F828E83A3A3A3E0F5A000D293006E
:03213800C293222D
:101FD20025E025E024029000051213C79000067444
:0B1FE200801213C7900007E41213C721
:061FED008B448A45894681
:101FF300E4F547F548900002121388F54875470346
:10200300AB44AA45A9469000021213882401FFE4B9
:1020130033FED3E5479FEE6480F8748098500F85B4
:1020230047827583001213886248054780D285472B
:0920330082758300E5480213C721
:06203C00AB30AA31A9320D
:062042008B448A4589462B
:10204800C20AE4F547F54812136F64AA7049900074
:10205800011213886455703F7548039000021213EB
:1020680088F547AB44AA45A9469000021213882474
:1020780003FFE433FEC3E5489FEE6480F87480985C
:10208800500F85488275830012138862470548807F
:09209800D2E5477002D20AA20A47
:0120A100221C
:061CBE008B408A418942BF
:101CC400E4F543FFFDFC74AA1213B5AB40AA41A985
:101CD4004290000174551213C7900002740312134A
:101CE400C790000374201213C7900004121FE9E484
:101CF400FFEFC394065018C299AB40AA41A9428F82
:101D040082758300121388F5990F2099E480FBC231
:101D140098D29CE4FFE4FCFD2098100DBD00010C5A
:101D2400C3ED94E0EC942E40EF8039AB40AA41A976
:101D3400428F82758300E5991213C7C2980FBF09B9
:101D4400D4AB40AA41A9421220425016AB40AA414A
:101D5400A942900002121388B40607754301C2C257
:081D64008002D2C2C29CAF4311
:011D6C002254
:08196A008F308B318A32893382
:10197200E4F534F53EF53FC209FB7A007935121CD5
:10198200BEEF7003A20922AB31AA32A93374AA12A4
:1019920013B5AB31AA32A93390000174551213C7A3
:1019A20090000274161213C790000374221213C718
:1019B20090000474021213C7900005E530121FDB79
:1019C200E4F534E534C39419502EE4F53EF53FC2F4
:1019D20099AB31AA32A933853482F583121388F583
:1019E2009905342099DD053FE53F7002053EC39419
:1019F200D0E53E940740EC22C298E4F534D29CE450
:101A0200F53EF53F209813053FE53F7002053EC3C2
:101A120094E0E53E942E40EC8036AB31AA32A933F5
:101A2200853482758300E5991213C7C2980534E59F
:101A320034B405CBAB31AA32A9331220425011ABD8
:101A420031AA32A933900003121388B42202D209B8
:041A5200C29CA20987
:011A5600226D
:081865008F088B098A0A890B28
:10186D00E4F50CF50DF50EC20BFB7A00790F121C89
:10187D00BEEF7003A20B22AB09AA0AA90B74AA1220
:10188D0013B5AB09AA0AA90B90000174551213C721
:10189D0090000274061213C790000374211213C72F
:1018AD0090000474021213C7900005E508121FDBA7
:1018BD00E4F50CE50CC39409501AC299AB09AA0AB8
:1018CD00A90B850C82758300121388F599050C20E0
:1018DD0099E180FBC298E4F50CD29CE4F50DF50E70
:1018ED00209816050EE50E7002050DC394E0E50D6A
:1018FD00942E40ECC29CA20B22AB09AA0AA90B851F
:10190D000C82758300E5991213C7C298050CE50C7E
:10191D00B415C8AB09AA0AA90B1220425011AB0984
:10192D00AA0AA90B900003121388B42102D20BC28C
:10193D009CAB09AA0AA90BE5131213B5AB09AA0AA8
:10194D00A90B900001E5141213C7900002E51512C2
:0C195D0013C7900003E5161213C7A20B7D
:01196900225B
:080DC7008F308B318A32893331
:100DCF00E4F534F535F536C208FB7A007937121C95
:100DDF00BEEF7003A20822AB31AA32A93374AA1254
:100DEF0013B5AB31AA32A93390000174551213C752
:100DFF0090000274061213C790000374211213C7D8
:100E0F0090000474021213C7E530121FD2E4F534B8
:100E1F00E534C39409501AC299AB31AA32A933856C
:100E2F003482758300121388F59905342099E18077
:100E3F00FBC298E4F534D29CE4F535F536209814CE
:100E4F000536E53670020535C394E0E535942E403E
:100E5F00EC020F46AB31AA32A93385348275830079
:100E6F00E5991213C7C2980534E534B415CAAB31EE
:100E7F00AA32A9331220425010AB31AA32A93390B3
:100E8F0000031213886421600302102FE4F534AFBE
:100E9F003474042FF582E433F583AB31AA32A933CE
:100EAF00121388FD74252FF582E433F583ED1213A9
:100EBF00C70534E534B410D7AB31AA32A93374AABD
:100ECF001213B5AB31AA32A9339000017455121326
:100EDF00C790000274061213C790000374211213F7
:100EEF00C790000474021213C7E53025E025E00413
:100EFF00121FD8E4F534E534C39409501AC299ABE4
:100F0F0031AA32A933853482758300121388F5997B
:100F1F0005342099E180FBC298E4F534D29CE4F5C6
:100F2F0035F5362098160536E53670020535C3942B
:100F3F00E0E535942E40ECC29CA20822AB31AA32D8
:100F4F00A933853482758300E5991213C7C29805BA
:100F5F0034E534B415C8AB31AA32A933122042504C
:100F6F0010AB31AA32A933900003121388642160A9
:100F7F000302102FE4F534AF3474042FF582E433F9
:100F8F00F583AB31AA32A933121388FD74152FF5EF
:100F9F0082E433F583ED1213C70534E534B410D76B
:100FAF00AB31AA32A93374AA1213B5AB31AA32A945
:100FBF003390000174551213C79000027406121378
:100FCF00C790000374211213C79000047402121308
:100FDF00C7E53025E025E0121FD8E4F534E534C32A
:100FEF009409501AC299AB31AA32A933853482754C
:100FFF008300121388F59905342099E180FBC2987C
:10100F00E4F534D29CE4F535F5362098180536E52D
:10101F003670020535C394E0E535942E40ECC29C42
:10102F00C208A20822AB31AA32A933853482758354
:10103F0000E5991213C7C2980534E534B415C6D22A
:10104F0094AB31AA32A9331220425011AB31AA32DC
:10105F00A933900003121388B42102D208C29CABAB
:10106F0031AA32A933E53B1213B5AB31AA32A933FA
:10107F00900001E53C1213C7900002E53D1213C723
:10108F00900003E53E1213C7E4F534AF3474152F07
:10109F00F582E433F583AB31AA32A933121388FDFD
:1010AF0074142FF582E433F583ED1213C70534E57D
:0810BF0034B420D7C294A2084A
:0110C7002206
:0809F6008F2F8B308A3189320A
:1009FE00E4F533F534F535C209FB7A007936121C6D
:100A0E00BEEF7003A20922AB30AA31A93274AA122A
:100A1E0013B5AB30AA31A93290000174551213C729
:100A2E0090000274061213C790000374211213C7AC
:100A3E0090000474021213C7E52F25E025E024056B
:100A4E00121FD8E4F533E533C39409501AC299AB9B
:100A5E0030AA31A932853382758300121388F59935
:100A6E0005332099E180FBC298E4F533D29CE4F57E
:100A7E0034F5352098140535E53570020534C394E8
:100A8E00E0E534942E40EC020C50AB30AA31A93282
:100A9E00853382758300E5991213C7C2980533E535
:100AAE0033B415CA12203C5010AB30AA31A9329083
:100ABE00000312138864216003020D34E4F533AF92
:100ACE003374042FF582E433F583AB30AA31A932A7
:100ADE00121388FD74352FF582E433F583ED12136E
:100AEE00C70533E533B410D7AB30AA31A93274AA97
:100AFE001213B5AB30AA31A93290000174551213FE
:100B0E00C790000274061213C790000374211213CB
:100B1E00C790000474021213C7E52F0425E025E0E8
:100B2E00121FD8E4F533E533C39409501AC299ABBA
:100B3E0030AA31A932853382758300121388F59954
:100B4E0005332099E180FBC298E4F533D29CE4F59D
:100B5E0034F5352098140535E53570020534C39407
:100B6E00E0E534942E40EC020C50AB30AA31A932A1
:100B7E00853382758300E5991213C7C2980533E554
:100B8E0033B415CA12203C5010AB30AA31A93290A2
:100B9E00000312138864216003020D34E4F533AFB1
:100BAE003374042FF582E433F583AB30AA31A932C6
:100BBE00121388FD74252FF582E433F583ED12139D
:100BCE00C70533E533B410D7AB30AA31A93274AAB6
:100BDE001213B5AB30AA31A932900001745512131D
:100BEE00C790000274061213C790000374211213EB
:100BFE00C790000474021213C7E52F121FD2E4F53A
:100C0E0033E533C39409501AC299AB30AA31A932D5
:100C1E00853382758300121388F59905332099E187
:100C2E0080FBC298E4F533D29CE4F534F535209878
:100C3E00160535E53570020534C394E0E534942E7F
:100C4E0040ECC29CA20922AB30AA31A93285338274
:100C5E00758300E5991213C7C2980533E533B415B1
:100C6E00C812203C5010AB30AA31A93290000312AA
:100C7E00138864216003020D34E4F533AF3374043A
:100C8E002FF582E433F583AB30AA31A932121388E3
:100C9E00FD74152FF582E433F583ED1213C705337A
:100CAE00E533B410D7AB30AA31A93274AA1213B5FA
:100CBE00AB30AA31A93290000174551213C79000BF
:100CCE000274061213C790000374211213C790000A
:100CDE000474021213C7E52F25E025E004121FD875
:100CEE00E4F533E533C39409501AC299AB30AA31F7
:100CFE00A932853382758300121388F59905332046
:100D0E0099E180FBC298E4F533D29CE4F534F535D5
:100D1E002098180535E53570020534C394E0E534A6
:100D2E00942E40ECC29CC209A20922AB30AA31A972
:100D3E0032853382758300E5991213C7C298053345
:100D4E00E533B415C6D29412203C5011AB30AA3103
:100D5E00A932900003121388B42102D209C29CABAF
:100D6E0030AA31A932E53A1213B5AB30AA31A93205
:100D7E00900001E53B1213C7900002E53C1213C729
:100D8E00900003E53D1213C7E4F533AF3374152F0E
:100D9E00F582E433F583AB30AA31A932121388FD04
:100DAE0074142FF582E433F583ED1213C70533E582
:080DBE0033B430D7C294A2093E
:010DC600220A
:06213B008B298A2A892B82
:10214100E4F52CC2081222AF40317F651221824092
:102151002AE52CC39407501C121DF9AB29AA2AA900
:102161002B852C82758300EF1213C7C20A122366D6
:10217100052C80DDD20A122366D208122340A20860
:01218100223B
:061EF1008B308A318932BA
:101EF700C208E490028BF0900004121388FFC39489
:101F07000D4015EFD39417500FE92404F9E43AFA7A
:101F170012136F44401213B51222AF40387F641278
:101F27002182403190028BE0FFC39406501EAB30F4
:101F3700AA31A9328F82758300121388FF1221C834
:101F47005002C32290028BE004F080D8E4FF1221F4
:0A1F5700C84002D208122340A2087D
:011F6100225D
:05000300E4F533F534C3
:0100080022D5
:1022AF00D285120003D28412000330851130840EC0
:1022BF00C285120003C284120003C2098002D20930
:0222CF00A20962
:0122D10022EA
:10234000C284120003C285120003D284120003D299
:0423500085020003FF
:10236600A20A9285120003D284120003C2840200DC
:012376000363
:10230F00D285120003D284120003A285920A120012
:08231F0003C284120003A20AAC
:012327002293
:10218200EF33920A122366EFA2E6920A122366EF57
:10219200A2E5920A122366EFA2E4920A122366EFE4
:1021A200A2E3920A122366EFA2E2920A122366EFD8
:1021B200A2E1920A122366EF13920A1223661223F5
:0521C2000F9209A209C3
:0121C70022F5
:1021C800EF13920A122366EFA2E1920A122366EF36
:1021D800A2E2920A122366EFA2E3920A122366EFA2
:1021E800A2E4920A122366EFA2E5920A122366EF8E
:1021F800A2E6920A122366EF33920A12236612238A
:052208000F9209A2097C
:01220D0022AE
:101DF90012230F9209A209E4335401FF12230F920F
:101E090009A209E433FE25E05402420712230F9286
:101E190009A209E433FE25E025E054044207122310
:101E29000F9209A209E433FE3333335408420712EF
:101E3900230F9209A209E433FEC454104207122366
:101E49000F9209A209E433FEC43354204207122336
:101E59000F9209A209E433FEC433335440420712F6
:101E6900230F9209A209E433C43333335480420760
:011E79002246
:0623A300C2AF43E78022F7
:09239A0053E77FE4F5E6D2AF221F
:0B238F001223A375E64675E6B9002294
:10232800AD07AC068CE3EDF5E453E5F843E501129F
:08233800238F12239AAFE22269
:10002600EE5401FCAD074D6002AE048EE3E4F5E448
:0C00360053E5F843E50312238F02239AE0
:10225200AB07AA068AE3EBF5E453E5F843E5028D02
:10226200E212238FE4F5E253E5F843E50175E64611
:1022720075E6B90012239AE5E2B50502D322C3221C
:0A1E7A008C308D318B328A338934AD
:101E8400E4F537F538D3E5319400E53094024001A8
:101E940022EE5401F5358F36E5362531FDE535352D
:101EA40030FCD3ED9400EC94024001228E358F3641
:101EB400C3E5389531E53795305030AB32AA33A9B4
:101EC40034853882853783121388FDAF36AE3512D8
:101ED40022529208200802C3220538E53870020510
:0C1EE400370536E53670C9053580C5D3DA
:011EF00022CF
:0A20A2008C318D328B338A3489357E
:1020AC008E368F371223A3E4F538F539C3E539950D
:1020BC0032E53895315029AF37AE36122328AB3381
:1020CC00AA34A935853982853883EF1213C70537B1
:1020DC00E537700205360539E53970D0053880CC06
:0320EC0002239A32
:03000000021D6D71
:0C1D6D00787FE4F6D8FD75815C021DB49F
:10136F00BB010689828A83E0225002E722BBFE027C
:09137F00E32289828A83E49322AF
:10138800BB010CE58229F582E5833AF583E022501A
:1013980006E92582F8E622BBFE06E92582F8E22264
:0D13A800E58229F582E5833AF583E493227E
:1013B500BB010689828A83F0225002F722BBFE0117
:0213C500F32211
:1013C700F8BB010DE58229F582E5833AF583E8F05C
:1013D700225006E92582C8F622BBFE05E92582C808
:0213E700F222F0
:1013E900BC000BBE0029EF8DF084FFADF022E4CCE8
:1013F900F875F008EF2FFFEE33FEEC33FCEE9DECB1
:10140900984005FCEE9DFE0FD5F0E9E4CEFD22EDF6
:10141900F8F5F0EE8420D21CFEADF075F008EF2F40
:10142900FFED33FD4007985006D5F0F222C398FD31
:051439000FD5F0EA22CE
:10220E00C2D5E830E70FB2D5E4C39BFBE49AFAE4FB
:10221E0099F9E498F8EC30E717B2D512224412146B
:10222E00CEE4C39BFBE49AFAE499F9E498F88003B0
:10223E001214CE30D50DE4C39FFFE49EFEE49DFD47
:04224E00E49CFC22EE
:10143E00EB9FF5F0EA9E42F0E99D42F0E89C45F004
:01144E00227B
:10144F00E8600FECC313FCED13FDEE13FEEF13FF7B
:03145F00D8F1229F
:10146200E8600FEFC333FFEE33FEED33FDEC33FCE8
:03147200D8F1228C
:0C147500ECF0A3EDF0A3EEF0A3EFF022EA
:10148100F5F0C582A4C582C5F0C583A42583F58383
:011491002238
:101D79000222F4E493A3F8E493A34003F68001F26A
:101D890008DFF48029E493A3F85407240CC8C3336B
:101D9900C4540F4420C8834004F456800146F6DF3A
:101DA900E4800B010204081020408090000EE47EBC
:101DB900019360BCA3FF543F30E509541FFEE4932F
:101DC900A360010ECF54C025E060A840B8E493A3F6
:101DD900FAE493A3F8E493A3C8C582C8CAC583CA21
:101DE900F0A3C8C582C8CAC583CADFE9DEE780BED9
:0100220000DD
:1014920075F008758200EF2FFFEE33FECD33CDCC11
:1014A20033CCC58233C5829BED9AEC99E582984094
:1014B2000CF582EE9BFEED9AFDEC99FC0FD5F0D671
:1014C200E4CEFBE4CDFAE4CCF9A88222B800C1B99B
:1014D2000059BA002DEC8BF084CFCECDFCE5F0CBD9
:1014E200F97818EF2FFFEE33FEED33FDEC33FCEB12
:1014F20033FB10D703994004EB99FB0FD8E5E4F9CD
:10150200FA227818EF2FFFEE33FEED33FDEC33FCB9
:10151200C933C910D7059BE99A4007EC9BFCE99AAD
:10152200F90FD8E0E4C9FAE4CCFB2275F010EF2FF2
:10153200FFEE33FEED33FDCC33CCC833C810D707F2
:101542009BEC9AE899400AED9BFDEC9AFCE899F82D
:0E1552000FD5F0DAE4CDFBE4CCFAE4C8F922C0
:00000001FF
