:0B1C6900EF1FAC0670011E4C70F6224D
:10000E00121BBFC2B77F107E27121C69121B6F1204
:04001E00150780FB47
:101BBF007527067528007529FD7B057D017F0112AC
:101BCF0014427B087A487D017F01120F8DC2ACD27F
:021BDF00AF2233
:100F8D008F248D258A268B27E52420E003021080EF
:100F9D00E52570555389F0AE26AF27AB07AA06EAB3
:100FAD003395E0F9F8C374FF9BFF74FF9AFEE49943
:100FBD00FDE498FCE4FB7A01F9F8121AFB8F8CAE74
:100FCD0026AF27AB07AA06EA3395E0F9F8C374FFFD
:100FDD009BFF74FF9AFEE499FDE498FCE4FB7A0113
:100FED00F9F8121AFBAF038F8AE5256401705AE5F3
:100FFD008954F04401F589AE26AF27AB07AA06EA5E
:10100D003395E0F9F8C374FF9BFF74FF9AFEE499E2
:10101D00FDE498FCE4FB7A01F9F8121AFB8F8CAE13
:10102D0026AF27AB07AA06EA3395E0F9F8C374FF9C
:10103D009BFF74FF9AFEE499FDE498FCE4FB7A01B2
:10104D00F9F8121AFBAF038F8AE525B4020EE58974
:10105D0054F04402F589AF278F8C8F8AE525B403B0
:10106D000EE58954F04403F589AF278F8C8F8AD212
:10107D008CD2A9E52420E10302116BE525705553AF
:10108D00890FAE26AF27AB07AA06EA3395E0F9F82C
:10109D00C374FF9BFF74FF9AFEE499FDE498FCE492
:1010AD00FB7A01F9F8121AFB8F8DAE26AF27AB072D
:1010BD00AA06EA3395E0F9F8C374FF9BFF74FF9A13
:1010CD00FEE499FDE498FCE4FB7A01F9F8121AFBB1
:1010DD00AF038F8BE5256401705AE589540F4410D9
:1010ED00F589AE26AF27AB07AA06EA3395E0F9F8E6
:1010FD00C374FF9BFF74FF9AFEE499FDE498FCE432
:10110D00FB7A01F9F8121AFB8F8DAE26AF27AB07CC
:10111D00AA06EA3395E0F9F8C374FF9BFF74FF9AB2
:10112D00FEE499FDE498FCE4FB7A01F9F8121AFB50
:10113D00AF038F8BE525B4020EE589540F4420F5DE
:10114D0089AF278F8D8F8BE525B4030EE589540F5D
:0F115D004430F589AF278F8D8F8BD28ED2AB2286
:10144200EF30E070ED146010146013146016240382
:101452007016C29FC29E8010C29FD29E800AD29FE7
:10146200C29E8004D29FD29EEB6404701DE527B415
:1014720006054387808008E527B4070653877F85E2
:10148200299C538EE0438E118028EB640570235310
:10149200890F438920538EFEE527B40605438780D2
:1014A2008008E527B4070953877FAE298E8D8E8B7E
:1014B200D28ED2ACEF30E14CED14600F14601414F4
:1014C20060192403701B539A3F8016539A3F439A24
:1014D20040800E539A3F439A808006539A3F439A24
:1014E200C0EB6404701BE527B40608538EE3438EF9
:1014F20018800BE527B40709538EE3438E10852924
:051502009C43AF012233
:10136200EF30E029ED7008EBF452945293801EBDE9
:101372000109EB4294EBF452938012BD0206EBF4A6
:1013820052948006BD0306EB4294EB4293EF30E1A8
:1013920029ED7008EBF452925291801EBD0109EBC7
:1013A2004292EBF452918012BD0206EBF45292800B
:1013B20006BD0306EB4292EB4291EF30E229ED705B
:1013C20008EBF452965295801EBD0109EB4296EB52
:1013D200F452958012BD0206EBF452968006BD03CC
:1013E20006EB4296EB4295EF30E329ED7008EBF401
:1013F20052B252B1801EBD0109EB42B2EBF452B1BE
:101402008012BD0206EBF452B28006BD0306EB4227
:10141200B2EB42B1EF30E427ED7007EBF452B45275
:10142200B322BD0108EB42B4EBF452B322BD020673
:10143200EBF452B48006BD0306EB42B4EB42B32296
:041C2600C109C10827
:03000B000216F7E3
:1016F700C0E0C0D0758CB7758AF70518E518D39484
:10170700024007751800D209B294051DE51DD39450
:10171700324005751D00D2023008170519E519B4C6
:101727000102D2B7E519D3940A4007C2B775190069
:10173700C20830001A051AE51AD394504011751AD9
:1017470000C20075460075470075480075490030AE
:10175700041A051CE51CD394504011751C00C204E3
:10176700754C00754D00754E00754F003001100522
:101777001BE51BD394FA4007751B00C201D203D0A7
:04178700D0D0E032AC
:03002300021C3983
:101C3900752200752300309803C29832309902C288
:011C49009901
:011C4A003267
:03004300021C5C40
:0D1C5C00C0E0E59A30E003539AFED0E0327C
:0E1C2A0041020000C101C103C100C104C1029A
:10150700E4F524F525F5267B017A0079007D09FCB1
:10151700FF7E801219D97E007F00121A2F30092C06
:10152700C209E52614600F04701D7E027F011208B0
:101537002375260180567E027F017C027D367A0262
:101547007B391200468000E4F526804030023DC218
:10155700027B017A027901121A6E5030900201E083
:10156700900236F0900202E0541F900237F090028A
:1015770003E0543F900238F0900205E0543F900298
:1015870039F0900206E0547F90023AF030038EC2A1
:10159700037B017A0079007D087C007F007E801242
:0C15A70019D97E007F00121A2F021524B3
:0C0AF5008E2D8F2E8C2F8D308A318B328D
:100B010090028774FFF08F828E83A3E0FFE4FCFDE7
:100B1100FE7808120E8FE4FFE4FDFCC004C005C09E
:100B210006C007852E82852D83E0FFE4FE78101232
:100B31000E8FE4D003D002D001D0002BFBE43AFAAF
:100B4100ED39F9E438F8A3A3E0FFE4FCFDFEEB2F57
:100B5100FFEE3AFEED39FDEC38FC900288120EA250
:100B6100853082852F83A3E0FFE4FCFDFE78081227
:100B71000E8FE4FFE4FDFCC004C005C006C007857C
:100B81003082852F83E0FFE4FE7810120E8FE4D0CF
:100B910003D002D001D0002BFBE43AFAED39F9E49D
:100BA10038F8A3A3E0FFE4FCFDFEEB2FFFEE3AFED5
:100BB100ED39FDEC38FC90028C120EA2AB3DAA3E41
:100BC100A93F900001120DB5FFE4FCFDFE7808126B
:100BD1000E8FE4FFE4FDFCC004C005C006C007128F
:100BE1000D9CFFE4FE7810120E8FE4D003D002D0EA
:100BF10001D0002BFFE43AFEED39FDE438FCC004DE
:100C0100C005C006C007AB3DAA3EA93F9000021235
:100C11000DB5FFE4FCFDFED003D002D001D000EB06
:100C21002FFFEE3AFEED39FDEC38FC900290120EEA
:100C3100A2900288E0FCA3E0FDA3E0FEA3E0FF9008
:100C41000290E0F8A3E0F9A3E0FAA3E0FBC3120EDF
:100C51006B401B90028CE0FCA3E0FDA3E0FEA3E04F
:100C6100FFA3E0F8A3A3A3E0D3120E6B4002C322BB
:100C7100853282853183E0FEA3E07C002400FFEC15
:100C81003E900294F0FCA3EFF0FD8536828535831A
:100C9100E0FEA3E07A002400FFEA3E900296F0A372
:100CA100EFF0853A82853983E0FEA3E02400FFEA74
:100CB1003E900298F0A3EFF0853482853383E0FE05
:100CC100A3E02400FFEA3E90029AF0A3EFF08538FA
:100CD10082853783E0FEA3E02400FFEA3E90029C78
:100CE100F0A3EFF0853C82853B83E0FEA3E0240086
:100CF100FFEA3E90029EF0A3EFF08541828540839A
:100D0100E0FEA3E02400FFEA3EFE9002A0F0A3EF84
:100D1100F0E4900287F0C3EF9DEE9C401590029A9B
:100D2100E0FEA3E0FFD39002A1E09F9002A0E09E2D
:100D31004007900287E04401F0900296E0FEA3E0B4
:100D4100FF9002A0E0FCA3E0FDC39FEC9E400F904A
:100D5100029CE0FEA3E0FFD3ED9FEC9E40079002D2
:100D610087E04402F0900298E0FEA3E0FFC3ED9F0C
:100D7100EC9E401590029EE0FEA3E0FFD39002A1FD
:100D8100E09F9002A0E09E4007900287E04404F0BB
:0A0D9100900287E0B40702C322D3EA
:010D9B002235
:04165C008E2D8F2E12
:10166000E4900287F0A3F0900287E0FEA3E0FFC3BE
:101670009458EE941B507EEF7802C333CE33CED80D
:10168000F92400FFEE3482FE7B017A0279897D0421
:101690007C001219D9852E82852D83E0FF90028966
:1016A000E0FEEF6E703B852E82852D83A3E0FF90D8
:1016B000028AE0FEEF6E7029852E82852D83A3A31A
:1016C000E0FF90028BE0FEEFB50616852E82852D99
:1016D00083A3A3A3E0FF90028CE0FEEFB50602D344
:1016E00022900288E004F06003021667900287E00F
:0616F00004F0021667C3BE
:0116F60022D1
:0C0046008E278F288C298D2A8A2B8B2C6A
:10005200E54A04FFAA27A9287B01120534400302BE
:100062000526852882852783E0654C7022A3E0B5AA
:100072004D1D852882852783A3A3E0B54E118528CF
:1000820082852783A3A3A3E0654F7003020533E4AF
:1000920090023BF090023BE0FF2528F582E43527F1
:1000A200F583E0FE744C2FF8A60690023BE004F0C4
:1000B200E0B404E0D204E5282404FFE43527FE126C
:1000C200165C4003020533E490023BF090023BE0F1
:1000D200F975F002A4FFAEF02408FDE43EFCE52829
:1000E2002DF582E5273CF583E0C454F0FDEF2409A9
:1000F200FFE43EFEE5282FF582E5273EF583E05436
:100102000F4DFF743C29F582E43402F583EFF0E9E8
:1001120075F002A4FFAEF0240EFDE43EFCE5282DAE
:10012200F582E5273CF583E0C454F0FDEF240FFF90
:10013200E43EFEE5282FF582E5273EF583E0540FE5
:100142004DFF743F29F582E43402F583EFF090020B
:100152003BE004F0E0640360030200CEE490023B63
:10016200F090023BE0F9C39402400302023CE9FF33
:100172007E002414FDEE33FCE5282DF582E5273CB4
:10018200F583E0FD744229F582E43402F583EDF053
:10019200EF2418FFEE33FEE5282FF582E5273EF522
:1001A20083E0FF744629F582E43402F583EFF0E937
:1001B200FF7E00241CFDEE33FCE5282DF582E527A9
:1001C2003CF583E0FD744A29F582E43402F583EDBF
:1001D200F0EF2416FFEE33FEE5282FF582E5273EE9
:1001E200F583E0FF744429F582E43402F583EFF0ED
:1001F200E9FF7E00241AFDEE33FCE5282DF582E5A9
:10020200273CF583E0FD744829F582E43402F58346
:10021200EDF0EF241EFFEE33FEE5282FF582E527F1
:100222003EF583E0FF744C29F582E43402F583EF56
:10023200F090023BE004F0020163E5282421F582FC
:10024200E43527F583E0FFE4FCFDFE7810120E8F03
:10025200E4FFFEE4FCC004C005C006C007E5282494
:1002620020F582E43527F583E0FFE4FD7818120ECD
:100272008FD003D002D001D000E42BFFE43AFEE499
:1002820039FDEC38FCC004C005C006C007E52824CF
:1002920022F582E43527F583E0FFE4FCFDFE7808D1
:1002A200120E8FE4FDFCD003D002D001D0002BFB54
:1002B200EA3EFAED39F9EC38F8E5282423F582E430
:1002C2003527F583E0FFE4FEEB2FFFEE3AFEED3932
:1002D200FDEC38FC90024E120EA27E027F3C7C02A4
:1002E2007D3F7A027B42C003753302753444753513
:1002F20002753646753702753848753902753A4ABD
:10030200753B02753C4C753D0185293E852A3F852A
:100312002B40852C41D003120AF54003020533AA73
:1003220027A9287B01AF4A1205344003020533E5B1
:100332004BC43354E0FFE550541F4FFEE52824150B
:10034200F582E43527F583E0FD6E600AEF6D600605
:10035200ED6003020533E5282414F582E43527F520
:1003620083E020E40302042DE4FFFEFDFC90024E34
:10037200E0F8A3E0F9A3E0FAA3E0FBD3120E6B507E
:1003820003020533E54A04FF7B017A027952120522
:1003920034400302053390024EE0FCA3E0FDA3E0EB
:1003A200FEA3E0C39401FFEE9400FEED9400FDEC89
:1003B2009400FC90024E120EA290024EE0FCA3E0CA
:1003C200FDA3E0FEA3E0FF7818120E7C900272EF0C
:1003D200F090024EE0FCA3E0FDA3E0FEA3E0FF7874
:1003E20010120E7C900273EFF090024EE0FCA3E03C
:1003F200FDA3E0FEA3E0FF7808120E7C900274EFEA
:10040200F090024EE0FCA3E0FDA3E0FEA3E0FF902B
:100412000275EFF0E54A25E025E02405FF7B017A2D
:1004220002795E1212714003020533E5282414F5A5
:1004320082E43527F583E054E070627B017A00792B
:10044200007D08FCFF7E801219D9E490023BF090F7
:10045200023BE0FFC394085035EF2424FFE433FE4F
:10046200E5282FF582E5273EF583C083C082E0FFB1
:1004720090023BE02400F582E43400F583E0FEEFD5
:100482004ED082D083F090023BE004F080C1121A79
:1004920026D208D201E4F51B900200F022E52824BE
:1004A20014F582E43527F583E054E06480600302AA
:1004B2000533900200E0F4F07B017A0079007D08B8
:1004C2007C007F007E801219D9E490023BF09002FA
:1004D2003BE0F9C394085046E9FF7E002424FDEE78
:1004E20033FCE5282DF582E5273CF583E0FD9002FB
:1004F20000E0FCED5CFD740029F582E43400F58334
:10050200E04DFDEF2424FFEE33FEE5282FF582E5D2
:10051200273EF583EDF090023BE004F080B0121A22
:1005220026D20822E4F51CC204F556F54DF54EF527
:010532004F79
:0105330022A5
:040823008E278F2865
:10082700AA06A9077B01E4FF1205344003020AE781
:10083700852882852783E065467022A3E0B5471D9A
:10084700852882852783A3A3E0B54811852882855B
:100857002783A3A3A3E065497003020AF4E4900287
:100867003BF0A3F090023BE0FEA3E0FF2528F582D2
:10087700E5273EF583E0FD74462FF8A60590023C78
:10088700E004F0700690023BE004F090023BE07059
:1008970004A3E0640470CDD200E5282416F582E4B1
:1008A7003527F583E0FEE5282417F582E43527F59B
:1008B70083E0FDEDFF900241EEF0A3EFF0E5282481
:1008C70018F582E43527F583E0FEE5282419F5823B
:1008D700E43527F583E0FDEDFF900243EEF0A3EF4B
:1008E700F0E5282414F582E43527F583E0546064A5
:1008F70040600302099E900200F0900241E0FEA3CF
:10090700E0FF120026900241E0FEA3E0FFE5282465
:100917002CFDE43527FAA9057B017D087C00121818
:10092700985074208328900242E02408FF900241E7
:10093700E03400FEE528241AFDE43527FAA9057BF3
:10094700017D027C001218985035D2088031E54BA2
:10095700C43354E0FFE550541F4F900000F0A3E567
:100967004AF0D208900242E02408FF900241E034A6
:1009770000FE7B017A0079007D027C001218987BCB
:10098700017A0079007D087C007F007E801219D9EA
:100997007E007F00121A2FE5282414F582E43527FC
:1009A700F583E0546064606003020AF4900200F08B
:1009B700C3900244E09480900243E0940040030215
:1009C7000AF4E0FAA3E0FB7C007D0CFFAE02120EF6
:1009D7001690023DEEF0A3EFF07C007D0CAF03AE66
:1009E70002120E16ED4C600BE004F0700690023D0B
:1009F700E004F0E490023BF0A3F090023EE0240113
:100A0700FF90023DE03400FE90023BE0FCA3E0FDD6
:100A17002401FBE43CFAC3EB9FEA9E4003020AB3BE
:100A2700ED04FFAA27A9287B011205344003020A17
:100A3700E7E490023FF0A3F090023FE0FEA3E0FF5F
:100A4700C39430EE94005053EF2404FFE43EFEE5D8
:100A5700282FF582E5273EF583E0FF90023FE0FC73
:100A6700A3E0FD90023BE0FAA3E0F5828A837430AD
:100A7700120EAEE5822DF582E5833CF583E58224EF
:100A870000F582E5833400F583EFF0900240E0043F
:100A9700F070A590023FE004F0809D90023CE004D6
:100AA700F0700690023BE004F0020A01900241E078
:100AB700FEA3E0FF120026900243E0FEA3E07802C7
:100AC700C333CE33CED8F9FDAC067B017A0079006B
:100AD700900241E0FEA3E0FF1218985010D20822BE
:0D0AE700E4F51AC200F546F547F548F5495B
:010AF40022DF
:101B6F007B017A0079007D0A7C007F007E8012194C
:101B7F00D9900009E0F54A900008E0C4135407F526
:0D1B8F004BE0541FF5507E007F00021A2F1E
:091A2600E5282424FFE43527FE25
:101A2F00C290C291C292C293D290008F828E83E0F5
:101A3F00F5A0C290D291008F828E83A3E0F5A0C251
:101A4F0091D292008F828E83A3A3E0F5A0C292D28F
:0F1A5F0093008F828E83A3A3A3E0F5A0C29322EE
:10197500900005120DF49000067480120DF490008D
:0519850007E4120DF45F
:06198A008B418A428943F3
:10199000E4F544F545900002120DB5F54575440394
:1019A000AB41AA42A943900002120DB52401FFE405
:1019B00033FED3E5449FEE6480F8748098500F8521
:1019C0004482758300120DB56245054480D285447A
:0919D00082758300E545020DF467
:06190F00AB2EAA2FA93047
:061915008B418A42894368
:10191B00C206E4F544F545120D9C64AA704990008B
:10192B0001120DB56455703F754503900002120D01
:10193B00B5F544AB41AA42A943900002120DB52460
:10194B0003FFE433FEC3E5459FEE6480F874809893
:10195B00500F854582758300120DB5624405458095
:09196B00D2E5447002D206A20686
:011974002250
:0615B3008B3D8A3E893FDA
:1015B900E4F540FFFDFC74AA120DE2AB3DAA3EA979
:1015C9003F9000017455120DF49000027403120D3E
:1015D900F49000037420120DF4900004121986E4AB
:1015E900FFEFC394065018C299AB3DAA3EA93F8F9D
:1015F90082758300120DB5F5990F2099E480FBC21D
:1016090098D29CE4FFE4FCFD2098100DBD00010C6C
:10161900C3ED94D0EC940740EF8033AB3DAA3EA9CB
:101629003F8F82758300E599120DF4C2980FBF09A7
:10163900D4AB3DAA3EA93F1219155012AB3DAA3EA3
:10164900A93F900002120DB5B40603754001C29C72
:02165900AF40A0
:01165B00226C
:081271008F2D8B2E8A2F89308E
:10127900E4F531F53BF53CC205FB7A0079321215EC
:10128900B3EF7003A20522AB2EAA2FA93074AA12BC
:101299000DE2AB2EAA2FA9309000017455120DF45E
:1012A9009000027416120DF49000037422120DF4CA
:1012B9009000047402120DF4900005E52D121978BE
:1012C900E4F531E531C39419501AC299AB2EAA2F0E
:1012D900A930853182758300120DB5F59905312044
:1012E90099E180FBC298E4F531D29C3098FDAB2E90
:1012F900AA2FA930853182758300E599120DF4E58D
:1013090031C394055032E4F53BF53C209813053C74
:10131900E53C7002053BC394D0E53B940740EC8063
:1013290033AB2EAA2FA930853182758300E5991236
:101339000DF4C298053180C7AB2EAA2FA930121916
:10134900155011AB2EAA2FA930900003120DB5B478
:081359002202D205C29CA2058C
:011361002269
:08116C008F088B098A0A890B28
:10117400E4F50CF50DF50EC20AFB7A00790F121591
:10118400B3EF7003A20A22AB09AA0AA90B74AA122C
:101194000DE2AB09AA0AA90B9000017455120DF4D3
:1011A4009000027406120DF49000037421120DF4E1
:1011B4009000047402120DF4900005E508121978E9
:1011C400E4F50CE50CC39409501AC299AB09AA0AB8
:1011D400A90B850C82758300120DB5F599050C20B9
:1011E40099E180FBC298E4F50CD29CE4F50DF50E70
:1011F400209816050EE50E7002050DC394D0E50D7A
:10120400940740ECC29CA20A22AB09AA0AA90B8546
:101214000C82758300E599120DF4C298050CE50C57
:10122400B415C8AB09AA0AA90B1219155011AB09B8
:10123400AA0AA90B900003120DB5B42102D20AC266
:101244009CAB09AA0AA90BE513120DE2AB09AA0A81
:10125400A90B900001E514120DF4900002E515129B
:0C1264000DF4900003E516120DF4A20A30
:01127000225B
:080534008F2D8B2E8A2F8930D8
:10053C00E4F531F532F533C205FB7A007934121546
:10054C00B3EF7003A20522AB2EAA2FA93074AA1206
:10055C000DE2AB2EAA2FA9309000017455120DF4A8
:10056C009000027406120DF49000037421120DF425
:10057C009000047402120DF4E52D25E025E0240210
:10058C00121975E4F531E531C39409501AC299ABCF
:10059C002EAA2FA930853182758300120DB5F599DD
:1005AC0005312099E180FBC298E4F531D29CE4F549
:1005BC0032F5332098140533E53370020532C394B9
:1005CC00D0E532940740EC020794AB2EAA2FA93049
:1005DC00853182758300E599120DF4C2980531E5D9
:1005EC0031B415CA12190F5010AB2EAA2FA9309086
:1005FC000003120DB5642160030206E5E4F531AF8A
:10060C003174042FF582E433F583AB2EAA2FA93075
:10061C00120DB5FD74252FF582E433F583ED120D23
:10062C00F40531E531B410D7AB2EAA2FA93074AA3A
:10063C00120DE2AB2EAA2FA9309000017455120DA9
:10064C00F49000027406120DF49000037421120D44
:10065C00F49000047402120DF4E52D25E025E0045D
:10066C00121975E4F531E531C39409501AC299ABEE
:10067C002EAA2FA930853182758300120DB5F599FC
:10068C0005312099E180FBC298E4F531D29CE4F568
:10069C0032F5332098140533E53370020532C394D8
:1006AC00D0E532940740EC020794AB2EAA2FA93068
:1006BC00853182758300E599120DF4C2980531E5F8
:1006CC0031B415CA12190F5010AB2EAA2FA93090A5
:1006DC000003120DB564216005C205A20522E4F5E4
:1006EC0031AF3174042FF582E433F583AB2EAA2F8E
:1006FC00A930120DB5FD74152FF582E433F583ED99
:10070C00120DF40531E531B410D7AB2EAA2FA93058
:10071C0074AA120DE2AB2EAA2FA9309000017455C9
:10072C00120DF49000027406120DF4900003742163
:10073C00120DF49000047402120DF4E52D25E02541
:10074C00E0121975E4F531E531C39409501AC299D8
:10075C00AB2EAA2FA930853182758300120DB5F509
:10076C009905312099E180FBC298E4F531D29CE4E3
:10077C00F532F5332098160533E53370020532C394
:10078C0094D0E532940740ECC29CA20522AB2EAA71
:10079C002FA930853182758300E599120DF4C2982A
:1007AC000531E531B415C812190F5011AB2EAA2F13
:1007BC00A930900003120DB5B42102D205C29CAB36
:1007CC002EAA2FA930E538120DE2AB2EAA2FA93094
:1007DC00900001E539120DF4900002E53A120DF487
:1007EC00900003E53B120DF4E4F531AF3174152F95
:1007FC00F582E433F583AB2EAA2FA930120DB5FD8B
:10080C0074142FF582E433F583ED120DF40531E504
:06081C0031B420D7A20553
:0108220022B3
:061A6E008B278A2889295C
:101A7400E4F52AC205121B9C40317F65121AB54059
:101A84002AE52AC39407501C121817AB27AA28A9C1
:101A940029852A82758300EF120DF4C207121C4BAC
:101AA400052A80DDD207121C4BD205121C12A20596
:011AB400220F
:05000300E4F52BF52CD3
:0100080022D5
:101B9C00D285120003D28412000330851130840EDA
:101BAC00C285120003C284120003C2068002D20650
:021BBC00A2067F
:011BBE002204
:101C1200C284120003C285120003D284120003D2CE
:041C22008502000334
:101C4B00A2079285120003D284120003C284020001
:011C5B000385
:101BE100D285120003D284120003A285920712004B
:081BF10003C284120003A207E5
:011BF90022C9
:101AB500EF339207121C4BEFA2E69207121C4BEF75
:101AC500A2E59207121C4BEFA2E49207121C4BEF02
:101AD500A2E39207121C4BEFA2E29207121C4BEFF6
:101AE500A2E19207121C4BEF139207121C4B121B1B
:051AF500E19206A206CB
:011AFA0022C9
:10181700121BE19206A206E4335401FF121BE19268
:1018270006A206E433FE25E054024207121BE192AA
:1018370006A206E433FE25E025E054044207121B06
:10184700E19206A206E433FE33333354084207120B
:101857001BE19206A206E433FEC454104207121B92
:10186700E19206A206E433FEC43354204207121B5A
:10187700E19206A206E433FEC43333544042071212
:101887001BE19206A206E433C43333335480420784
:01189700222E
:091C7F00C2AF43E70143E78022F4
:091C880053E77FE4F5E6D2AF2238
:0B1C7400121C7F75E64675E6B90022E1
:101BFA00AD07AC068CE3EDF5E453E5F843E50112D5
:081C0A001C74121C88AFE222D9
:10002600EE5401FCAD074D6002AE048EE3E4F5E448
:0C00360053E5F843E503121C74021C881B
:101B3F00AB07AA068AE3EBF5E453E5F843E5028D1C
:101B4F00E2121C74E4F5E253E5F843E50175E6464D
:101B5F0075E6B900121C88E5E2B50502D322C3224F
:0A1898008C298D2A8B2B8A2C892DB8
:1018A200E4F530F531D3E52A9400E52994024001AC
:1018B20022EE5401F52E8F2FE52F252AFDE52E3538
:1018C20029FCD3ED9400EC94024001228E2E8F2F3E
:1018D200C3E531952AE53095295030AB2BAA2CA9C6
:1018E2002D853182853083120DB5FDAF2FAE2E12BC
:1018F2001B3F9205200502C3220531E53170020526
:0C19020030052FE52F70C9052E80C5D3DD
:01190E0022B6
:0A19D9008C2F8D308B318A32893358
:1019E3008E348F35121C7FE4F536F537C3E5379512
:1019F30030E536952F5029AF35AE34121BFAAB3193
:101A0300AA32A933853782853683EF120DF4053563
:101A1300E535700205340537E53770D0053680CCDF
:031A2300021C881A
:0300000002178B59
:0C178B00787FE4F6D8FD7581500217D27B
:100D9C00BB010689828A83E0225002E722BBFE0255
:090DAC00E32289828A83E4932288
:100DB500BB010CE58229F582E5833AF583E02250F3
:100DC50006E92582F8E622BBFE06E92582F8E2223D
:0D0DD500E58229F582E5833AF583E4932257
:100DE200BB010689828A83F0225002F722BBFE01F0
:020DF200F322EA
:100DF400F8BB010DE58229F582E5833AF583E8F035
:100E0400225006E92582C8F622BBFE05E92582C8E0
:020E1400F222C8
:100E1600BC000BBE0029EF8DF084FFADF022E4CCC0
:100E2600F875F008EF2FFFEE33FEEC33FCEE9DEC89
:100E3600984005FCEE9DFE0FD5F0E9E4CEFD22EDCF
:100E4600F8F5F0EE8420D21CFEADF075F008EF2F19
:100E5600FFED33FD4007985006D5F0F222C398FD0A
:050E66000FD5F0EA22A7
:101AFB00C2D5E830E70FB2D5E4C39BFBE49AFAE416
:101B0B0099F9E498F8EC30E717B2D5121B31120EA5
:101B1B00FBE4C39BFBE49AFAE499F9E498F880039D
:101B2B00120EFB30D50DE4C39FFFE49EFEE49DFD3A
:041B3B00E49CFC2208
:100E6B00EB9FF5F0EA9E42F0E99D42F0E89C45F0DD
:010E7B002254
:100E7C00E8600FECC313FCED13FDEE13FEEF13FF54
:030E8C00D8F12278
:100E8F00E8600FEFC333FFEE33FEED33FDEC33FCC1
:030E9F00D8F12265
:0C0EA200ECF0A3EDF0A3EEF0A3EFF022C3
:100EAE00F5F0C582A4C582C5F0C583A42583F5835C
:010EBE002211
:1017970002000EE493A3F8E493A34003F68001F25A
:1017A70008DFF48029E493A3F85407240CC8C33353
:1017B700C4540F4420C8834004F456800146F6DF22
:1017C700E4800B0102040810204080901C26E47E70
:1017D700019360BCA3FF543F30E509541FFEE49317
:1017E700A360010ECF54C025E060A840B8E493A3DE
:1017F700FAE493A3F8E493A3C8C582C8CAC583CA09
:10180700F0A3C8C582C8CAC583CADFE9DEE780BEC0
:011C380000AB
:100EBF0075F008758200EF2FFFEE33FECD33CDCCEA
:100ECF0033CCC58233C5829BED9AEC99E58298406D
:100EDF000CF582EE9BFEED9AFDEC99FC0FD5F0D64A
:100EEF00E4CEFBE4CDFAE4CCF9A88222B800C1B974
:100EFF000059BA002DEC8BF084CFCECDFCE5F0CBB2
:100F0F00F97818EF2FFFEE33FEED33FDEC33FCEBEA
:100F1F0033FB10D703994004EB99FB0FD8E5E4F9A5
:100F2F00FA227818EF2FFFEE33FEED33FDEC33FC92
:100F3F00C933C910D7059BE99A4007EC9BFCE99A86
:100F4F00F90FD8E0E4C9FAE4CCFB2275F010EF2FCB
:100F5F00FFEE33FEED33FDCC33CCC833C810D707CB
:100F6F009BEC9AE899400AED9BFDEC9AFCE899F806
:0E0F7F000FD5F0DAE4CDFBE4CCFAE4C8F92299
:00000001FF
